{
  "address": "0xc85E5802BADE56Facb93bb373da6bA7c1902b19c",
  "abi": [
    {
      "inputs": [
        {
          "internalType": "contract BaseRegistrarImplementation",
          "name": "_base",
          "type": "address"
        },
        {
          "internalType": "contract IPriceOracle",
          "name": "_prices",
          "type": "address"
        },
        {
          "internalType": "uint256",
          "name": "_minCommitmentAge",
          "type": "uint256"
        },
        {
          "internalType": "uint256",
          "name": "_maxCommitmentAge",
          "type": "uint256"
        },
        {
          "internalType": "contract ReverseRegistrar",
          "name": "_reverseRegistrar",
          "type": "address"
        },
        {
          "internalType": "contract INameWrapper",
          "name": "_nameWrapper",
          "type": "address"
        },
        {
          "internalType": "contract RNS",
          "name": "_ens",
          "type": "address"
        }
      ],
      "stateMutability": "nonpayable",
      "type": "constructor"
    },
    {
      "inputs": [
        {
          "internalType": "bytes32",
          "name": "commitment",
          "type": "bytes32"
        }
      ],
      "name": "CommitmentTooNew",
      "type": "error"
    },
    {
      "inputs": [
        {
          "internalType": "bytes32",
          "name": "commitment",
          "type": "bytes32"
        }
      ],
      "name": "CommitmentTooOld",
      "type": "error"
    },
    {
      "inputs": [
        {
          "internalType": "uint256",
          "name": "duration",
          "type": "uint256"
        }
      ],
      "name": "DurationTooShort",
      "type": "error"
    },
    {
      "inputs": [],
      "name": "InsufficientValue",
      "type": "error"
    },
    {
      "inputs": [],
      "name": "MaxCommitmentAgeTooHigh",
      "type": "error"
    },
    {
      "inputs": [],
      "name": "MaxCommitmentAgeTooLow",
      "type": "error"
    },
    {
      "inputs": [
        {
          "internalType": "string",
          "name": "name",
          "type": "string"
        }
      ],
      "name": "NameNotAvailable",
      "type": "error"
    },
    {
      "inputs": [
        {
          "internalType": "address",
          "name": "account",
          "type": "address"
        }
      ],
      "name": "NotInWhitelist",
      "type": "error"
    },
    {
      "inputs": [],
      "name": "ResolverRequiredWhenDataSupplied",
      "type": "error"
    },
    {
      "inputs": [
        {
          "internalType": "bytes32",
          "name": "commitment",
          "type": "bytes32"
        }
      ],
      "name": "UnexpiredCommitmentExists",
      "type": "error"
    },
    {
      "anonymous": false,
      "inputs": [
        {
          "indexed": false,
          "internalType": "string",
          "name": "name",
          "type": "string"
        },
        {
          "indexed": true,
          "internalType": "bytes32",
          "name": "label",
          "type": "bytes32"
        },
        {
          "indexed": true,
          "internalType": "address",
          "name": "owner",
          "type": "address"
        },
        {
          "indexed": false,
          "internalType": "uint256",
          "name": "baseCost",
          "type": "uint256"
        },
        {
          "indexed": false,
          "internalType": "uint256",
          "name": "premium",
          "type": "uint256"
        },
        {
          "indexed": false,
          "internalType": "uint256",
          "name": "expires",
          "type": "uint256"
        }
      ],
      "name": "NameRegistered",
      "type": "event"
    },
    {
      "anonymous": false,
      "inputs": [
        {
          "indexed": false,
          "internalType": "string",
          "name": "name",
          "type": "string"
        },
        {
          "indexed": true,
          "internalType": "bytes32",
          "name": "label",
          "type": "bytes32"
        },
        {
          "indexed": true,
          "internalType": "address",
          "name": "owner",
          "type": "address"
        },
        {
          "indexed": false,
          "internalType": "address",
          "name": "token",
          "type": "address"
        },
        {
          "indexed": false,
          "internalType": "uint256",
          "name": "baseCost",
          "type": "uint256"
        },
        {
          "indexed": false,
          "internalType": "uint256",
          "name": "premium",
          "type": "uint256"
        },
        {
          "indexed": false,
          "internalType": "uint256",
          "name": "expires",
          "type": "uint256"
        }
      ],
      "name": "NameRegisteredWithERC20",
      "type": "event"
    },
    {
      "anonymous": false,
      "inputs": [
        {
          "indexed": false,
          "internalType": "string",
          "name": "name",
          "type": "string"
        },
        {
          "indexed": true,
          "internalType": "bytes32",
          "name": "label",
          "type": "bytes32"
        },
        {
          "indexed": false,
          "internalType": "uint256",
          "name": "cost",
          "type": "uint256"
        },
        {
          "indexed": false,
          "internalType": "uint256",
          "name": "expires",
          "type": "uint256"
        }
      ],
      "name": "NameRenewed",
      "type": "event"
    },
    {
      "anonymous": false,
      "inputs": [
        {
          "indexed": false,
          "internalType": "string",
          "name": "name",
          "type": "string"
        },
        {
          "indexed": true,
          "internalType": "bytes32",
          "name": "label",
          "type": "bytes32"
        },
        {
          "indexed": false,
          "internalType": "address",
          "name": "token",
          "type": "address"
        },
        {
          "indexed": false,
          "internalType": "uint256",
          "name": "cost",
          "type": "uint256"
        },
        {
          "indexed": false,
          "internalType": "uint256",
          "name": "expires",
          "type": "uint256"
        }
      ],
      "name": "NameRenewedWithERC20",
      "type": "event"
    },
    {
      "anonymous": false,
      "inputs": [
        {
          "indexed": true,
          "internalType": "address",
          "name": "previousOwner",
          "type": "address"
        },
        {
          "indexed": true,
          "internalType": "address",
          "name": "newOwner",
          "type": "address"
        }
      ],
      "name": "OwnershipTransferred",
      "type": "event"
    },
    {
      "anonymous": false,
      "inputs": [
        {
          "indexed": false,
          "internalType": "address",
          "name": "prices",
          "type": "address"
        },
        {
          "indexed": false,
          "internalType": "address",
          "name": "pricesERC20",
          "type": "address"
        }
      ],
      "name": "SetPriceOracles",
      "type": "event"
    },
    {
      "anonymous": false,
      "inputs": [
        {
          "indexed": false,
          "internalType": "address",
          "name": "account",
          "type": "address"
        },
        {
          "indexed": false,
          "internalType": "bool",
          "name": "isWhitelist",
          "type": "bool"
        }
      ],
      "name": "SetWhitelist",
      "type": "event"
    },
    {
      "inputs": [],
      "name": "MIN_REGISTRATION_DURATION",
      "outputs": [
        {
          "internalType": "uint256",
          "name": "",
          "type": "uint256"
        }
      ],
      "stateMutability": "view",
      "type": "function"
    },
    {
      "inputs": [
        {
          "internalType": "string",
          "name": "name",
          "type": "string"
        }
      ],
      "name": "available",
      "outputs": [
        {
          "internalType": "bool",
          "name": "",
          "type": "bool"
        }
      ],
      "stateMutability": "view",
      "type": "function"
    },
    {
      "inputs": [
        {
          "internalType": "bytes32",
          "name": "commitment",
          "type": "bytes32"
        }
      ],
      "name": "commit",
      "outputs": [],
      "stateMutability": "nonpayable",
      "type": "function"
    },
    {
      "inputs": [
        {
          "internalType": "bytes32",
          "name": "",
          "type": "bytes32"
        }
      ],
      "name": "commitments",
      "outputs": [
        {
          "internalType": "uint256",
          "name": "",
          "type": "uint256"
        }
      ],
      "stateMutability": "view",
      "type": "function"
    },
    {
      "inputs": [
        {
          "internalType": "address",
          "name": "",
          "type": "address"
        }
      ],
      "name": "isAuthorized",
      "outputs": [
        {
          "internalType": "bool",
          "name": "",
          "type": "bool"
        }
      ],
      "stateMutability": "view",
      "type": "function"
    },
    {
      "inputs": [
        {
          "internalType": "string",
          "name": "name",
          "type": "string"
        },
        {
          "internalType": "address",
          "name": "owner",
          "type": "address"
        },
        {
          "internalType": "uint256",
          "name": "duration",
          "type": "uint256"
        },
        {
          "internalType": "bytes32",
          "name": "secret",
          "type": "bytes32"
        },
        {
          "internalType": "address",
          "name": "resolver",
          "type": "address"
        },
        {
          "internalType": "bytes[]",
          "name": "data",
          "type": "bytes[]"
        },
        {
          "internalType": "bool",
          "name": "reverseRecord",
          "type": "bool"
        },
        {
          "internalType": "uint16",
          "name": "ownerControlledFuses",
          "type": "uint16"
        }
      ],
      "name": "makeCommitment",
      "outputs": [
        {
          "internalType": "bytes32",
          "name": "",
          "type": "bytes32"
        }
      ],
      "stateMutability": "pure",
      "type": "function"
    },
    {
      "inputs": [],
      "name": "maxCommitmentAge",
      "outputs": [
        {
          "internalType": "uint256",
          "name": "",
          "type": "uint256"
        }
      ],
      "stateMutability": "view",
      "type": "function"
    },
    {
      "inputs": [],
      "name": "minCommitmentAge",
      "outputs": [
        {
          "internalType": "uint256",
          "name": "",
          "type": "uint256"
        }
      ],
      "stateMutability": "view",
      "type": "function"
    },
    {
      "inputs": [],
      "name": "nameWrapper",
      "outputs": [
        {
          "internalType": "contract INameWrapper",
          "name": "",
          "type": "address"
        }
      ],
      "stateMutability": "view",
      "type": "function"
    },
    {
      "inputs": [],
      "name": "owner",
      "outputs": [
        {
          "internalType": "address",
          "name": "",
          "type": "address"
        }
      ],
      "stateMutability": "view",
      "type": "function"
    },
    {
      "inputs": [],
      "name": "prices",
      "outputs": [
        {
          "internalType": "contract IPriceOracle",
          "name": "",
          "type": "address"
        }
      ],
      "stateMutability": "view",
      "type": "function"
    },
    {
      "inputs": [],
      "name": "pricesERC20",
      "outputs": [
        {
          "internalType": "contract IERC20PriceOracle",
          "name": "",
          "type": "address"
        }
      ],
      "stateMutability": "view",
      "type": "function"
    },
    {
      "inputs": [
        {
          "internalType": "address",
          "name": "_token",
          "type": "address"
        },
        {
          "internalType": "address",
          "name": "_to",
          "type": "address"
        },
        {
          "internalType": "uint256",
          "name": "_amount",
          "type": "uint256"
        }
      ],
      "name": "recoverFunds",
      "outputs": [],
      "stateMutability": "nonpayable",
      "type": "function"
    },
    {
      "inputs": [
        {
          "internalType": "string",
          "name": "name",
          "type": "string"
        },
        {
          "internalType": "address",
          "name": "owner",
          "type": "address"
        },
        {
          "internalType": "uint256",
          "name": "duration",
          "type": "uint256"
        },
        {
          "internalType": "bytes32",
          "name": "secret",
          "type": "bytes32"
        },
        {
          "internalType": "address",
          "name": "resolver",
          "type": "address"
        },
        {
          "internalType": "bytes[]",
          "name": "data",
          "type": "bytes[]"
        },
        {
          "internalType": "bool",
          "name": "reverseRecord",
          "type": "bool"
        },
        {
          "internalType": "uint16",
          "name": "ownerControlledFuses",
          "type": "uint16"
        }
      ],
      "name": "register",
      "outputs": [],
      "stateMutability": "payable",
      "type": "function"
    },
    {
      "inputs": [
        {
          "internalType": "string",
          "name": "name",
          "type": "string"
        },
        {
          "internalType": "address",
          "name": "owner",
          "type": "address"
        },
        {
          "internalType": "uint256",
          "name": "duration",
          "type": "uint256"
        },
        {
          "internalType": "bytes32",
          "name": "secret",
          "type": "bytes32"
        },
        {
          "internalType": "address",
          "name": "resolver",
          "type": "address"
        },
        {
          "internalType": "bytes[]",
          "name": "data",
          "type": "bytes[]"
        },
        {
          "internalType": "bool",
          "name": "reverseRecord",
          "type": "bool"
        },
        {
          "internalType": "uint16",
          "name": "ownerControlledFuses",
          "type": "uint16"
        },
        {
          "internalType": "contract IERC20",
          "name": "token",
          "type": "address"
        }
      ],
      "name": "registerWithERC20",
      "outputs": [],
      "stateMutability": "nonpayable",
      "type": "function"
    },
    {
      "inputs": [
        {
          "internalType": "string",
          "name": "name",
          "type": "string"
        },
        {
          "internalType": "uint256",
          "name": "duration",
          "type": "uint256"
        }
      ],
      "name": "renew",
      "outputs": [],
      "stateMutability": "payable",
      "type": "function"
    },
    {
      "inputs": [
        {
          "internalType": "string",
          "name": "name",
          "type": "string"
        },
        {
          "internalType": "uint256",
          "name": "duration",
          "type": "uint256"
        },
        {
          "internalType": "contract IERC20",
          "name": "token",
          "type": "address"
        }
      ],
      "name": "renewWithERC20",
      "outputs": [],
      "stateMutability": "nonpayable",
      "type": "function"
    },
    {
      "inputs": [],
      "name": "renounceOwnership",
      "outputs": [],
      "stateMutability": "nonpayable",
      "type": "function"
    },
    {
      "inputs": [
        {
          "internalType": "address",
          "name": "token",
          "type": "address"
        },
        {
          "internalType": "string",
          "name": "name",
          "type": "string"
        },
        {
          "internalType": "uint256",
          "name": "duration",
          "type": "uint256"
        }
      ],
      "name": "rentERC20Price",
      "outputs": [
        {
          "components": [
            {
              "internalType": "uint256",
              "name": "base",
              "type": "uint256"
            },
            {
              "internalType": "uint256",
              "name": "premium",
              "type": "uint256"
            }
          ],
          "internalType": "struct IERC20PriceOracle.Price",
          "name": "price",
          "type": "tuple"
        }
      ],
      "stateMutability": "view",
      "type": "function"
    },
    {
      "inputs": [
        {
          "internalType": "string",
          "name": "name",
          "type": "string"
        },
        {
          "internalType": "uint256",
          "name": "duration",
          "type": "uint256"
        }
      ],
      "name": "rentPrice",
      "outputs": [
        {
          "components": [
            {
              "internalType": "uint256",
              "name": "base",
              "type": "uint256"
            },
            {
              "internalType": "uint256",
              "name": "premium",
              "type": "uint256"
            }
          ],
          "internalType": "struct IPriceOracle.Price",
          "name": "price",
          "type": "tuple"
        }
      ],
      "stateMutability": "view",
      "type": "function"
    },
    {
      "inputs": [],
      "name": "reverseRegistrar",
      "outputs": [
        {
          "internalType": "contract ReverseRegistrar",
          "name": "",
          "type": "address"
        }
      ],
      "stateMutability": "view",
      "type": "function"
    },
    {
      "inputs": [
        {
          "internalType": "address",
          "name": "_account",
          "type": "address"
        },
        {
          "internalType": "bool",
          "name": "_isAuthorized",
          "type": "bool"
        }
      ],
      "name": "setAuth",
      "outputs": [],
      "stateMutability": "nonpayable",
      "type": "function"
    },
    {
      "inputs": [
        {
          "internalType": "contract IPriceOracle",
          "name": "_prices",
          "type": "address"
        },
        {
          "internalType": "contract IERC20PriceOracle",
          "name": "_pricesERC20",
          "type": "address"
        }
      ],
      "name": "setPriceOracles",
      "outputs": [],
      "stateMutability": "nonpayable",
      "type": "function"
    },
    {
      "inputs": [
        {
          "internalType": "address",
          "name": "_account",
          "type": "address"
        },
        {
          "internalType": "bool",
          "name": "_isWhitelist",
          "type": "bool"
        }
      ],
      "name": "setWhitelist",
      "outputs": [],
      "stateMutability": "nonpayable",
      "type": "function"
    },
    {
      "inputs": [
        {
          "internalType": "bytes4",
          "name": "interfaceID",
          "type": "bytes4"
        }
      ],
      "name": "supportsInterface",
      "outputs": [
        {
          "internalType": "bool",
          "name": "",
          "type": "bool"
        }
      ],
      "stateMutability": "pure",
      "type": "function"
    },
    {
      "inputs": [
        {
          "internalType": "address",
          "name": "newOwner",
          "type": "address"
        }
      ],
      "name": "transferOwnership",
      "outputs": [],
      "stateMutability": "nonpayable",
      "type": "function"
    },
    {
      "inputs": [
        {
          "internalType": "string",
          "name": "name",
          "type": "string"
        }
      ],
      "name": "valid",
      "outputs": [
        {
          "internalType": "bool",
          "name": "",
          "type": "bool"
        }
      ],
      "stateMutability": "pure",
      "type": "function"
    },
    {
      "inputs": [
        {
          "internalType": "string",
          "name": "name",
          "type": "string"
        },
        {
          "internalType": "address",
          "name": "owner",
          "type": "address"
        },
        {
          "internalType": "uint256",
          "name": "duration",
          "type": "uint256"
        },
        {
          "internalType": "bytes32",
          "name": "secret",
          "type": "bytes32"
        },
        {
          "internalType": "address",
          "name": "resolver",
          "type": "address"
        },
        {
          "internalType": "bytes[]",
          "name": "data",
          "type": "bytes[]"
        },
        {
          "internalType": "bool",
          "name": "reverseRecord",
          "type": "bool"
        },
        {
          "internalType": "uint16",
          "name": "ownerControlledFuses",
          "type": "uint16"
        }
      ],
      "name": "whitelistRegister",
      "outputs": [],
      "stateMutability": "nonpayable",
      "type": "function"
    },
    {
      "inputs": [
        {
          "internalType": "address",
          "name": "",
          "type": "address"
        }
      ],
      "name": "whitelists",
      "outputs": [
        {
          "internalType": "bool",
          "name": "",
          "type": "bool"
        }
      ],
      "stateMutability": "view",
      "type": "function"
    },
    {
      "inputs": [],
      "name": "withdraw",
      "outputs": [],
      "stateMutability": "nonpayable",
      "type": "function"
    },
    {
      "inputs": [
        {
          "internalType": "contract IERC20",
          "name": "token",
          "type": "address"
        },
        {
          "internalType": "uint256",
          "name": "amount",
          "type": "uint256"
        }
      ],
      "name": "withdrawERC20",
      "outputs": [],
      "stateMutability": "nonpayable",
      "type": "function"
    }
  ],
  "transactionHash": "0x0c142f4af0b7aa4150d2c0c3385d03b62f81a8637f45410f0f860801448c0a71",
  "args": [
    "0xEeD3C3c547751e23020f4cb506FbA37baEb3308D",
    "0x0000000000000000000000000000000000000000",
    60,
    86400,
    "0xfFF7719aaB38eadE6A1CfdA864a174B715e9d673",
    "0x44640D662A423d738D5ebF8B51E57AfC0f2cf4Df",
    "0xEC58C26B8E0A4bc0fe1ad21D216e4ecAd9e037A8"
  ],
  "numDeployments": 1,
  "solcInputHash": "9667632af64e70f0b8243344371bdc45",
  "bytecode": "0x6101206040523480156200001257600080fd5b506040516200319138038062003191833981016040819052620000359162000233565b80336200004281620001ca565b6040516302571be360e01b81527f91d1777781884d03a6757a803996e38de2a42967fb37eeaca72729271025a9e260048201526000906001600160a01b038416906302571be390602401602060405180830381865afa158015620000aa573d6000803e3d6000fd5b505050506040513d601f19601f82011682018060405250810190620000d09190620002c7565b604051630f41a04d60e11b81526001600160a01b03848116600483015291925090821690631e83409a906024016020604051808303816000875af11580156200011d573d6000803e3d6000fd5b505050506040513d601f19601f82011682018060405250810190620001439190620002ee565b5050505084841162000168576040516307cb550760e31b815260040160405180910390fd5b428411156200018a57604051630b4319e560e21b815260040160405180910390fd5b506001600160a01b03958616608052600180546001600160a01b0319169587169590951790945560a09290925260c052821660e052166101005262000308565b600080546001600160a01b038381166001600160a01b0319831681178455604051919092169283917f8be0079c531659141344cd1fd0a4f28419497f9722a3daafe3b4186f6b6457e09190a35050565b6001600160a01b03811681146200023057600080fd5b50565b600080600080600080600060e0888a0312156200024f57600080fd5b87516200025c816200021a565b60208901519097506200026f816200021a565b809650506040880151945060608801519350608088015162000291816200021a565b60a0890151909350620002a4816200021a565b60c0890151909250620002b7816200021a565b8091505092959891949750929550565b600060208284031215620002da57600080fd5b8151620002e7816200021a565b9392505050565b6000602082840312156200030157600080fd5b5051919050565b60805160a05160c05160e05161010051612df76200039a600039600081816104d0015281816107b301528181610b8d01528181610f25015281816112c601526116e70152600081816103810152611dc2015260008181610577015281816119e50152611bee01526000818161043e0152611b770152600081816114de0152818161183401526118f80152612df76000f3fe6080604052600436106101d85760003560e01c80638a95b09f11610102578063aed51e2f11610095578063f14fcbc811610064578063f14fcbc8146105b9578063f2fde38b146105d9578063fd19a937146105f9578063fe9fbb801461061957600080fd5b8063aed51e2f14610525578063c38b98a814610545578063ce1e09c014610565578063d3419bf31461059957600080fd5b8063a1db9782116100d1578063a1db97821461049e578063a8e5fbc0146104be578063acf1a841146104f2578063aeb8ce9b1461050557600080fd5b80638a95b09f146104155780638d839ffe1461042c5780638da5cb5b146104605780639791c0971461047e57600080fd5b806353d6fd591161017a57806374694a2b1161014957806374694a2b1461035c578063808698531461036f578063839df945146103bb57806383e7f6ff146103e857600080fd5b806353d6fd59146102d95780635d3590d5146102f957806365a69dcf14610319578063715018a61461034757600080fd5b80631e7be210116101b65780631e7be210146102545780633923c930146102845780633ccfd60b146102a45780634ed23566146102b957600080fd5b806301ffc9a7146101dd5780630b067d30146102125780630b44a21814610234575b600080fd5b3480156101e957600080fd5b506101fd6101f836600461212e565b610649565b60405190151581526020015b60405180910390f35b34801561021e57600080fd5b5061023261022d366004612236565b6106b2565b005b34801561024057600080fd5b5061023261024f366004612305565b610918565b34801561026057600080fd5b506101fd61026f36600461233e565b60046020526000908152604090205460ff1681565b34801561029057600080fd5b5061023261029f36600461235b565b61094b565b3480156102b057600080fd5b50610232610d12565b3480156102c557600080fd5b506102326102d436600461243e565b610d49565b3480156102e557600080fd5b506102326102f4366004612305565b610ff9565b34801561030557600080fd5b5061023261031436600461249d565b611065565b34801561032557600080fd5b506103396103343660046125a3565b6110e6565b604051908152602001610209565b34801561035357600080fd5b50610232611184565b61023261036a366004612236565b611198565b34801561037b57600080fd5b506103a37f000000000000000000000000000000000000000000000000000000000000000081565b6040516001600160a01b039091168152602001610209565b3480156103c757600080fd5b506103396103d636600461266c565b60036020526000908152604090205481565b3480156103f457600080fd5b50610408610403366004612685565b611496565b60405161020991906126ca565b34801561042157600080fd5b506103396224ea0081565b34801561043857600080fd5b506103397f000000000000000000000000000000000000000000000000000000000000000081565b34801561046c57600080fd5b506000546001600160a01b03166103a3565b34801561048a57600080fd5b506101fd6104993660046126e1565b6115b0565b3480156104aa57600080fd5b506102326104b9366004612716565b6115c5565b3480156104ca57600080fd5b506103a37f000000000000000000000000000000000000000000000000000000000000000081565b610232610500366004612742565b611643565b34801561051157600080fd5b506101fd6105203660046126e1565b6117eb565b34801561053157600080fd5b5061040861054036600461278e565b6118ae565b34801561055157600080fd5b506002546103a3906001600160a01b031681565b34801561057157600080fd5b506103397f000000000000000000000000000000000000000000000000000000000000000081565b3480156105a557600080fd5b506001546103a3906001600160a01b031681565b3480156105c557600080fd5b506102326105d436600461266c565b6119ce565b3480156105e557600080fd5b506102326105f436600461233e565b611a57565b34801561060557600080fd5b506102326106143660046127e7565b611ae4565b34801561062557600080fd5b506101fd61063436600461233e565b60056020526000908152604090205460ff1681565b60006001600160e01b031982167f01ffc9a70000000000000000000000000000000000000000000000000000000014806106ac57506001600160e01b031982167f612e8c0900000000000000000000000000000000000000000000000000000000145b92915050565b3360009081526004602052604090205460ff16610702576040517fe19a26720000000000000000000000000000000000000000000000000000000081523360048201526024015b60405180910390fd5b6107998a8a8080601f016020809104026020016040519081016040528093929190818152602001838380828437600081840152601f19601f82011690508083019250505050505050886107948d8d8080601f0160208091040260200160405190810160405280939291908181526020018383808284376000920191909152508f92508e91508d90508c8c8c8c8c6110e6565b611b60565b604051635200a4c160e11b81526000906001600160a01b037f0000000000000000000000000000000000000000000000000000000000000000169063a4014982906107f2908e908e908e908e908d908a9060040161283e565b6020604051808303816000875af1158015610811573d6000803e3d6000fd5b505050506040513d601f19601f820116820180604052508101906108359190612888565b9050831561086057610860868c8c6040516108519291906128a1565b60405180910390208787611cdd565b82156108a9576108a98b8b8080601f0160208091040260200160405190810160405280939291908181526020018383808284376000920191909152508a9250339150611dc09050565b886001600160a01b03168b8b6040516108c39291906128a1565b60405180910390207f69e37f151eb98a09618ddaa80c8cfaf1ce5996867c489f45b555b412271ebf278d8d600080876040516109039594939291906128b1565b60405180910390a35050505050505050505050565b610920611e74565b6001600160a01b03919091166000908152600560205260409020805460ff1916911515919091179055565b600254604051631ccc198160e31b81526001600160a01b0383811660048301529091169063e660cc08906024016020604051808303816000875af1158015610997573d6000803e3d6000fd5b505050506040513d601f19601f820116820180604052508101906109bb91906128e2565b610a075760405162461bcd60e51b815260206004820152601360248201527f746f6b656e206e6f7420737570706f727465640000000000000000000000000060448201526064016106f9565b6000610a4b828d8d8080601f0160208091040260200160405190810160405280939291908181526020018383808284376000920191909152508e92506118ae915050565b9050816001600160a01b03166323b872dd333084602001518560000151610a729190612915565b6040516001600160e01b031960e086901b1681526001600160a01b03938416600482015292909116602483015260448201526064016020604051808303816000875af1158015610ac6573d6000803e3d6000fd5b505050506040513d601f19601f82011682018060405250810190610aea91906128e2565b50610b898c8c8080601f016020809104026020016040519081016040528093929190818152602001838380828437600081840152601f19601f820116905080830192505050505050508a6107948f8f8080601f016020809104026020016040519081016040528093929190818152602001838380828437600081840152601f19601f820116905080830192505050505050508e8e8e8e8e8e8e8e6110e6565b60007f00000000000000000000000000000000000000000000000000000000000000006001600160a01b031663a40149828e8e8e8e8d8a6040518763ffffffff1660e01b8152600401610be19695949392919061283e565b6020604051808303816000875af1158015610c00573d6000803e3d6000fd5b505050506040513d601f19601f82011682018060405250810190610c249190612888565b90508515610c4f57610c4f888e8e604051610c409291906128a1565b60405180910390208989611cdd565b8415610c9857610c988d8d8080601f0160208091040260200160405190810160405280939291908181526020018383808284376000920191909152508c9250339150611dc09050565b8a6001600160a01b03168d8d604051610cb29291906128a1565b60405180910390207fb9f9fdf24e40e399147fe1b7f9913163e5efe96ff8be070af43bdae17ff085328f8f878760000151886020015188604051610cfb96959493929190612928565b60405180910390a350505050505050505050505050565b610d1a611ece565b60405133904780156108fc02916000818181858888f19350505050158015610d46573d6000803e3d6000fd5b50565b600254604051631ccc198160e31b81526001600160a01b0383811660048301529091169063e660cc08906024016020604051808303816000875af1158015610d95573d6000803e3d6000fd5b505050506040513d601f19601f82011682018060405250810190610db991906128e2565b610e055760405162461bcd60e51b815260206004820152601360248201527f746f6b656e206e6f7420737570706f727465640000000000000000000000000060448201526064016106f9565b60008484604051610e179291906128a1565b604080519182900382206020601f880181900481028401810190925286835292508291600091610e659186918a908a90819084018382808284376000920191909152508a92506118ae915050565b9050836001600160a01b03166323b872dd333084602001518560000151610e8c9190612915565b6040516001600160e01b031960e086901b1681526001600160a01b03938416600482015292909116602483015260448201526064016020604051808303816000875af1158015610ee0573d6000803e3d6000fd5b505050506040513d601f19601f82011682018060405250810190610f0491906128e2565b5060405163c475abff60e01b815260048101839052602481018690526000907f00000000000000000000000000000000000000000000000000000000000000006001600160a01b03169063c475abff906044016020604051808303816000875af1158015610f76573d6000803e3d6000fd5b505050506040513d601f19601f82011682018060405250810190610f9a9190612888565b9050837f58ce2540499cd85c184673382e1c3efd2023d1ac3063881061b436192a51aaf789898886602001518760000151610fd59190612915565b86604051610fe795949392919061296a565b60405180910390a25050505050505050565b611001611e74565b6001600160a01b038216600081815260046020908152604091829020805460ff19168515159081179091558251938452908301527ff6019ec0a78d156d249a1ec7579e2321f6ac7521d6e1d2eacf90ba4a184dcceb91015b60405180910390a15050565b61106d611e74565b60405163a9059cbb60e01b81526001600160a01b0383811660048301526024820183905284169063a9059cbb906044016020604051808303816000875af11580156110bc573d6000803e3d6000fd5b505050506040513d601f19601f820116820180604052508101906110e091906128e2565b50505050565b885160208a0120600090841580159061110657506001600160a01b038716155b1561113d576040517fd3f605c400000000000000000000000000000000000000000000000000000000815260040160405180910390fd5b808a8a8a8a8a8a8a8a60405160200161115e99989796959493929190612a36565b604051602081830303815290604052805190602001209150509998505050505050505050565b61118c611e74565b6111966000611f42565b565b60006111db8b8b8080601f0160208091040260200160405190810160405280939291908181526020018383808284376000920191909152508c9250611496915050565b602081015181519192506111ee91612915565b34101561120e5760405163044044a560e21b815260040160405180910390fd5b6112ac8b8b8080601f016020809104026020016040519081016040528093929190818152602001838380828437600081840152601f19601f82011690508083019250505050505050896107948e8e8080601f016020809104026020016040519081016040528093929190818152602001838380828437600081840152601f19601f820116905080830192505050505050508d8d8d8d8d8d8d8d6110e6565b604051635200a4c160e11b81526000906001600160a01b037f0000000000000000000000000000000000000000000000000000000000000000169063a401498290611305908f908f908f908f908e908b9060040161283e565b6020604051808303816000875af1158015611324573d6000803e3d6000fd5b505050506040513d601f19601f820116820180604052508101906113489190612888565b9050841561137357611373878d8d6040516113649291906128a1565b60405180910390208888611cdd565b83156113bc576113bc8c8c8080601f0160208091040260200160405190810160405280939291908181526020018383808284376000920191909152508b9250339150611dc09050565b896001600160a01b03168c8c6040516113d69291906128a1565b60405180910390207f69e37f151eb98a09618ddaa80c8cfaf1ce5996867c489f45b555b412271ebf278e8e866000015187602001518760405161141d9594939291906128b1565b60405180910390a3602082015182516114369190612915565b341115611488576020820151825133916108fc916114549190612915565b61145e9034612a98565b6040518115909202916000818181858888f19350505050158015611486573d6000803e3d6000fd5b505b505050505050505050505050565b604080518082019091526000808252602082015282516020840120600154604051636b727d4360e11b8152600481018390526001600160a01b03918216916350e9a7159187917f0000000000000000000000000000000000000000000000000000000000000000169063d6e4fa8690602401602060405180830381865afa158015611525573d6000803e3d6000fd5b505050506040513d601f19601f820116820180604052508101906115499190612888565b866040518463ffffffff1660e01b815260040161156893929190612afb565b6040805180830381865afa158015611584573d6000803e3d6000fd5b505050506040513d601f19601f820116820180604052508101906115a89190612b6f565b949350505050565b600060016115bd83611f9f565b101592915050565b6115cd611ece565b60405163a9059cbb60e01b8152336004820152602481018290526001600160a01b0383169063a9059cbb906044016020604051808303816000875af115801561161a573d6000803e3d6000fd5b505050506040513d601f19601f8201168201806040525081019061163e91906128e2565b505050565b600083836040516116559291906128a1565b604080519182900382206020601f8701819004810284018101909252858352925082916000916116a291908890889081908401838280828437600092019190915250889250611496915050565b80519091503410156116c75760405163044044a560e21b815260040160405180910390fd5b60405163c475abff60e01b815260048101839052602481018590526000907f00000000000000000000000000000000000000000000000000000000000000006001600160a01b03169063c475abff906044016020604051808303816000875af1158015611738573d6000803e3d6000fd5b505050506040513d601f19601f8201168201806040525081019061175c9190612888565b82519091503411156117a457815133906108fc9061177a9034612a98565b6040518115909202916000818181858888f193505050501580156117a2573d6000803e3d6000fd5b505b837f3da24c024582931cfaf8267d8ed24d13a82a8068d5bd337d30ec45cea4e506ae888834856040516117da9493929190612b8b565b60405180910390a250505050505050565b805160208201206000906117fe836115b0565b80156118a757506040517f96e494e8000000000000000000000000000000000000000000000000000000008152600481018290527f00000000000000000000000000000000000000000000000000000000000000006001600160a01b0316906396e494e890602401602060405180830381865afa158015611883573d6000803e3d6000fd5b505050506040513d601f19601f820116820180604052508101906118a791906128e2565b9392505050565b604080518082019091526000808252602082015282516020840120600254604051636b727d4360e11b8152600481018390526001600160a01b039182169163bfa6463191889188917f00000000000000000000000000000000000000000000000000000000000000009091169063d6e4fa8690602401602060405180830381865afa158015611941573d6000803e3d6000fd5b505050506040513d601f19601f820116820180604052508101906119659190612888565b876040518563ffffffff1660e01b81526004016119859493929190612bb2565b6040805180830381865afa1580156119a1573d6000803e3d6000fd5b505050506040513d601f19601f820116820180604052508101906119c59190612b6f565b95945050505050565b6000818152600360205260409020544290611a0a907f000000000000000000000000000000000000000000000000000000000000000090612915565b10611a44576040517f0a059d71000000000000000000000000000000000000000000000000000000008152600481018290526024016106f9565b6000908152600360205260409020429055565b611a5f611e74565b6001600160a01b038116611adb5760405162461bcd60e51b815260206004820152602660248201527f4f776e61626c653a206e6577206f776e657220697320746865207a65726f206160448201527f646472657373000000000000000000000000000000000000000000000000000060648201526084016106f9565b610d4681611f42565b611aec611e74565b600180546001600160a01b0384811673ffffffffffffffffffffffffffffffffffffffff199283168117909355600280549185169190921681179091556040805192835260208301919091527f7614adf5ed8239402535cfb82026757770bec362e732a63216f897c6cc1791d49101611059565b6000818152600360205260409020544290611b9c907f000000000000000000000000000000000000000000000000000000000000000090612915565b1115611bd7576040517f5320bcf9000000000000000000000000000000000000000000000000000000008152600481018290526024016106f9565b6000818152600360205260409020544290611c13907f000000000000000000000000000000000000000000000000000000000000000090612915565b11611c4d576040517fcb7690d7000000000000000000000000000000000000000000000000000000008152600481018290526024016106f9565b611c56836117eb565b611c8e57826040517f477707e80000000000000000000000000000000000000000000000000000000081526004016106f99190612be7565b6000818152600360205260408120556224ea0082101561163e576040517f9a71997b000000000000000000000000000000000000000000000000000000008152600481018390526024016106f9565b604080517fa7475e6ec8a112e8e66186c42ec2ae37848f36e7c4f8c768d0f45b6242a2123a602080830191909152818301869052825180830384018152606083019384905280519101207fe32954eb0000000000000000000000000000000000000000000000000000000090925285906001600160a01b0382169063e32954eb90611d7090859088908890606401612bfa565b6000604051808303816000875af1158015611d8f573d6000803e3d6000fd5b505050506040513d6000823e601f3d908101601f19168201604052611db79190810190612c14565b50505050505050565b7f00000000000000000000000000000000000000000000000000000000000000006001600160a01b0316637a806d6b33838587604051602001611e039190612d13565b6040516020818303038152906040526040518563ffffffff1660e01b8152600401611e319493929190612d54565b6020604051808303816000875af1158015611e50573d6000803e3d6000fd5b505050506040513d601f19601f820116820180604052508101906110e09190612888565b6000546001600160a01b031633146111965760405162461bcd60e51b815260206004820181905260248201527f4f776e61626c653a2063616c6c6572206973206e6f7420746865206f776e657260448201526064016106f9565b6000546001600160a01b0316331480611ef657503360009081526005602052604090205460ff165b6111965760405162461bcd60e51b815260206004820152600e60248201527f6e6f7420617574686f72697a656400000000000000000000000000000000000060448201526064016106f9565b600080546001600160a01b0383811673ffffffffffffffffffffffffffffffffffffffff19831681178455604051919092169283917f8be0079c531659141344cd1fd0a4f28419497f9722a3daafe3b4186f6b6457e09190a35050565b8051600090819081905b80821015612125576000858381518110611fc557611fc5612d92565b01602001516001600160f81b03191690507f800000000000000000000000000000000000000000000000000000000000000081101561201057612009600184612915565b9250612112565b7fe0000000000000000000000000000000000000000000000000000000000000006001600160f81b03198216101561204d57612009600284612915565b7ff0000000000000000000000000000000000000000000000000000000000000006001600160f81b03198216101561208a57612009600384612915565b7ff8000000000000000000000000000000000000000000000000000000000000006001600160f81b0319821610156120c757612009600484612915565b7ffc000000000000000000000000000000000000000000000000000000000000006001600160f81b03198216101561210457612009600584612915565b61210f600684612915565b92505b508261211d81612da8565b935050611fa9565b50909392505050565b60006020828403121561214057600080fd5b81356001600160e01b0319811681146118a757600080fd5b60008083601f84011261216a57600080fd5b50813567ffffffffffffffff81111561218257600080fd5b60208301915083602082850101111561219a57600080fd5b9250929050565b6001600160a01b0381168114610d4657600080fd5b80356121c1816121a1565b919050565b60008083601f8401126121d857600080fd5b50813567ffffffffffffffff8111156121f057600080fd5b6020830191508360208260051b850101111561219a57600080fd5b8015158114610d4657600080fd5b80356121c18161220b565b803561ffff811681146121c157600080fd5b6000806000806000806000806000806101008b8d03121561225657600080fd5b8a3567ffffffffffffffff8082111561226e57600080fd5b61227a8e838f01612158565b909c509a5060208d0135915061228f826121a1565b90985060408c0135975060608c0135965060808c0135906122af826121a1565b90955060a08c013590808211156122c557600080fd5b506122d28d828e016121c6565b90955093505060c08b01356122e68161220b565b91506122f460e08c01612224565b90509295989b9194979a5092959850565b6000806040838503121561231857600080fd5b8235612323816121a1565b915060208301356123338161220b565b809150509250929050565b60006020828403121561235057600080fd5b81356118a7816121a1565b60008060008060008060008060008060006101208c8e03121561237d57600080fd5b67ffffffffffffffff808d35111561239457600080fd5b6123a18e8e358f01612158565b909c509a506123b360208e01356121a1565b60208d0135995060408d0135985060608d013597506123d560808e01356121a1565b60808d013596508060a08e013511156123ed57600080fd5b506123fe8d60a08e01358e016121c6565b909550935061240f60c08d01612219565b925061241d60e08d01612224565b915061242c6101008d016121b6565b90509295989b509295989b9093969950565b6000806000806060858703121561245457600080fd5b843567ffffffffffffffff81111561246b57600080fd5b61247787828801612158565b909550935050602085013591506040850135612492816121a1565b939692955090935050565b6000806000606084860312156124b257600080fd5b83356124bd816121a1565b925060208401356124cd816121a1565b929592945050506040919091013590565b634e487b7160e01b600052604160045260246000fd5b604051601f8201601f1916810167ffffffffffffffff8111828210171561251d5761251d6124de565b604052919050565b600067ffffffffffffffff82111561253f5761253f6124de565b50601f01601f191660200190565b600082601f83011261255e57600080fd5b813561257161256c82612525565b6124f4565b81815284602083860101111561258657600080fd5b816020850160208301376000918101602001919091529392505050565b60008060008060008060008060006101008a8c0312156125c257600080fd5b893567ffffffffffffffff808211156125da57600080fd5b6125e68d838e0161254d565b9a5060208c013591506125f8826121a1565b90985060408b0135975060608b0135965060808b013590612618826121a1565b90955060a08b0135908082111561262e57600080fd5b5061263b8c828d016121c6565b90955093505060c08a013561264f8161220b565b915061265d60e08b01612224565b90509295985092959850929598565b60006020828403121561267e57600080fd5b5035919050565b6000806040838503121561269857600080fd5b823567ffffffffffffffff8111156126af57600080fd5b6126bb8582860161254d565b95602094909401359450505050565b8151815260208083015190820152604081016106ac565b6000602082840312156126f357600080fd5b813567ffffffffffffffff81111561270a57600080fd5b6115a88482850161254d565b6000806040838503121561272957600080fd5b8235612734816121a1565b946020939093013593505050565b60008060006040848603121561275757600080fd5b833567ffffffffffffffff81111561276e57600080fd5b61277a86828701612158565b909790965060209590950135949350505050565b6000806000606084860312156127a357600080fd5b83356127ae816121a1565b9250602084013567ffffffffffffffff8111156127ca57600080fd5b6127d68682870161254d565b925050604084013590509250925092565b600080604083850312156127fa57600080fd5b8235612805816121a1565b91506020830135612333816121a1565b81835281816020850137506000828201602090810191909152601f909101601f19169091010190565b60a08152600061285260a08301888a612815565b90506001600160a01b03808716602084015285604084015280851660608401525061ffff83166080830152979650505050505050565b60006020828403121561289a57600080fd5b5051919050565b8183823760009101908152919050565b6080815260006128c5608083018789612815565b602083019590955250604081019290925260609091015292915050565b6000602082840312156128f457600080fd5b81516118a78161220b565b634e487b7160e01b600052601160045260246000fd5b808201808211156106ac576106ac6128ff565b60a08152600061293c60a08301888a612815565b90506001600160a01b0386166020830152846040830152836060830152826080830152979650505050505050565b60808152600061297e608083018789612815565b6001600160a01b0395909516602083015250604081019290925260609091015292915050565b81835260006020808501808196508560051b810191508460005b87811015612a295782840389528135601e198836030181126129df57600080fd5b8701858101903567ffffffffffffffff8111156129fb57600080fd5b803603821315612a0a57600080fd5b612a15868284612815565b9a87019a95505050908401906001016129be565b5091979650505050505050565b60006101008b83526001600160a01b03808c1660208501528a60408501528960608501528089166080850152508060a0840152612a7681840187896129a4565b94151560c0840152505061ffff9190911660e090910152979650505050505050565b818103818111156106ac576106ac6128ff565b60005b83811015612ac6578181015183820152602001612aae565b50506000910152565b60008151808452612ae7816020860160208601612aab565b601f01601f19169290920160200192915050565b606081526000612b0e6060830186612acf565b60208301949094525060400152919050565b600060408284031215612b3257600080fd5b6040516040810181811067ffffffffffffffff82111715612b5557612b556124de565b604052825181526020928301519281019290925250919050565b600060408284031215612b8157600080fd5b6118a78383612b20565b606081526000612b9f606083018688612815565b6020830194909452506040015292915050565b6001600160a01b0385168152608060208201526000612bd46080830186612acf565b6040830194909452506060015292915050565b6020815260006118a76020830184612acf565b8381526040602082015260006119c56040830184866129a4565b60006020808385031215612c2757600080fd5b825167ffffffffffffffff80821115612c3f57600080fd5b818501915085601f830112612c5357600080fd5b815181811115612c6557612c656124de565b8060051b612c748582016124f4565b9182528381018501918581019089841115612c8e57600080fd5b86860192505b83831015612d0657825185811115612cac5760008081fd5b8601603f81018b13612cbe5760008081fd5b878101516040612cd061256c83612525565b8281528d82848601011115612ce55760008081fd5b612cf4838c8301848701612aab565b85525050509186019190860190612c94565b9998505050505050505050565b60008251612d25818460208701612aab565b7f2e726f6f74000000000000000000000000000000000000000000000000000000920191825250600501919050565b60006001600160a01b038087168352808616602084015280851660408401525060806060830152612d886080830184612acf565b9695505050505050565b634e487b7160e01b600052603260045260246000fd5b600060018201612dba57612dba6128ff565b506001019056fea26469706673582212205dad416d193f083faf5f5f7296939ff8aec6bc8f3108bf6a4e95f09911bfba2464736f6c63430008110033",
  "devdoc": {
    "details": "A registrar controller for registering and renewing names at fixed cost.",
    "kind": "dev",
    "methods": {
      "owner()": {
        "details": "Returns the address of the current owner."
      },
      "recoverFunds(address,address,uint256)": {
        "details": "The contract is Ownable and only the owner can call the recover function.",
        "params": {
          "_amount": "The amount of tokens to recover.",
          "_to": "The address to send the tokens to.",
          "_token": "The address of the ERC20 token to recover"
        }
      },
      "renounceOwnership()": {
        "details": "Leaves the contract without owner. It will not be possible to call `onlyOwner` functions anymore. Can only be called by the current owner. NOTE: Renouncing ownership will leave the contract without an owner, thereby removing any functionality that is only available to the owner."
      },
      "transferOwnership(address)": {
        "details": "Transfers ownership of the contract to a new account (`newOwner`). Can only be called by the current owner."
      }
    },
    "version": 1
  },
  "userdoc": {
    "kind": "user",
    "methods": {
      "recoverFunds(address,address,uint256)": {
        "notice": "Recover ERC20 tokens sent to the contract by mistake."
      }
    },
    "version": 1
  },
  "storageLayout": {
    "storage": [
      {
        "astId": 444,
        "contract": "contracts/ethregistrar/ETHRegistrarController.sol:ETHRegistrarController",
        "label": "_owner",
        "offset": 0,
        "slot": "0",
        "type": "t_address"
      },
      {
        "astId": 11922,
        "contract": "contracts/ethregistrar/ETHRegistrarController.sol:ETHRegistrarController",
        "label": "prices",
        "offset": 0,
        "slot": "1",
        "type": "t_contract(IPriceOracle)14242"
      },
      {
        "astId": 11925,
        "contract": "contracts/ethregistrar/ETHRegistrarController.sol:ETHRegistrarController",
        "label": "pricesERC20",
        "offset": 0,
        "slot": "2",
        "type": "t_contract(IERC20PriceOracle)14134"
      },
      {
        "astId": 11939,
        "contract": "contracts/ethregistrar/ETHRegistrarController.sol:ETHRegistrarController",
        "label": "commitments",
        "offset": 0,
        "slot": "3",
        "type": "t_mapping(t_bytes32,t_uint256)"
      },
      {
        "astId": 11943,
        "contract": "contracts/ethregistrar/ETHRegistrarController.sol:ETHRegistrarController",
        "label": "whitelists",
        "offset": 0,
        "slot": "4",
        "type": "t_mapping(t_address,t_bool)"
      },
      {
        "astId": 11947,
        "contract": "contracts/ethregistrar/ETHRegistrarController.sol:ETHRegistrarController",
        "label": "isAuthorized",
        "offset": 0,
        "slot": "5",
        "type": "t_mapping(t_address,t_bool)"
      }
    ],
    "types": {
      "t_address": {
        "encoding": "inplace",
        "label": "address",
        "numberOfBytes": "20"
      },
      "t_bool": {
        "encoding": "inplace",
        "label": "bool",
        "numberOfBytes": "1"
      },
      "t_bytes32": {
        "encoding": "inplace",
        "label": "bytes32",
        "numberOfBytes": "32"
      },
      "t_contract(IERC20PriceOracle)14134": {
        "encoding": "inplace",
        "label": "contract IERC20PriceOracle",
        "numberOfBytes": "20"
      },
      "t_contract(IPriceOracle)14242": {
        "encoding": "inplace",
        "label": "contract IPriceOracle",
        "numberOfBytes": "20"
      },
      "t_mapping(t_address,t_bool)": {
        "encoding": "mapping",
        "key": "t_address",
        "label": "mapping(address => bool)",
        "numberOfBytes": "32",
        "value": "t_bool"
      },
      "t_mapping(t_bytes32,t_uint256)": {
        "encoding": "mapping",
        "key": "t_bytes32",
        "label": "mapping(bytes32 => uint256)",
        "numberOfBytes": "32",
        "value": "t_uint256"
      },
      "t_uint256": {
        "encoding": "inplace",
        "label": "uint256",
        "numberOfBytes": "32"
      }
    }
  }
}