{
  "address": "0x870bC2604D6EAC536c791A603bFDE1A1448e168e",
  "abi": [
    {
      "inputs": [
        {
          "internalType": "contract RNS",
          "name": "_ens",
          "type": "address"
        },
        {
          "internalType": "contract INameWrapper",
          "name": "wrapperAddress",
          "type": "address"
        },
        {
          "internalType": "address",
          "name": "_trustedETHController",
          "type": "address"
        },
        {
          "internalType": "address",
          "name": "_trustedReverseRegistrar",
          "type": "address"
        }
      ],
      "stateMutability": "nonpayable",
      "type": "constructor"
    },
    {
      "anonymous": false,
      "inputs": [
        {
          "indexed": true,
          "internalType": "bytes32",
          "name": "node",
          "type": "bytes32"
        },
        {
          "indexed": true,
          "internalType": "uint256",
          "name": "contentType",
          "type": "uint256"
        }
      ],
      "name": "ABIChanged",
      "type": "event"
    },
    {
      "anonymous": false,
      "inputs": [
        {
          "indexed": true,
          "internalType": "bytes32",
          "name": "node",
          "type": "bytes32"
        },
        {
          "indexed": false,
          "internalType": "address",
          "name": "a",
          "type": "address"
        }
      ],
      "name": "AddrChanged",
      "type": "event"
    },
    {
      "anonymous": false,
      "inputs": [
        {
          "indexed": true,
          "internalType": "bytes32",
          "name": "node",
          "type": "bytes32"
        },
        {
          "indexed": false,
          "internalType": "uint256",
          "name": "coinType",
          "type": "uint256"
        },
        {
          "indexed": false,
          "internalType": "bytes",
          "name": "newAddress",
          "type": "bytes"
        }
      ],
      "name": "AddressChanged",
      "type": "event"
    },
    {
      "anonymous": false,
      "inputs": [
        {
          "indexed": true,
          "internalType": "address",
          "name": "owner",
          "type": "address"
        },
        {
          "indexed": true,
          "internalType": "address",
          "name": "operator",
          "type": "address"
        },
        {
          "indexed": false,
          "internalType": "bool",
          "name": "approved",
          "type": "bool"
        }
      ],
      "name": "ApprovalForAll",
      "type": "event"
    },
    {
      "anonymous": false,
      "inputs": [
        {
          "indexed": false,
          "internalType": "address",
          "name": "owner",
          "type": "address"
        },
        {
          "indexed": true,
          "internalType": "bytes32",
          "name": "node",
          "type": "bytes32"
        },
        {
          "indexed": true,
          "internalType": "address",
          "name": "delegate",
          "type": "address"
        },
        {
          "indexed": true,
          "internalType": "bool",
          "name": "approved",
          "type": "bool"
        }
      ],
      "name": "Approved",
      "type": "event"
    },
    {
      "anonymous": false,
      "inputs": [
        {
          "indexed": true,
          "internalType": "bytes32",
          "name": "node",
          "type": "bytes32"
        },
        {
          "indexed": false,
          "internalType": "bytes",
          "name": "hash",
          "type": "bytes"
        }
      ],
      "name": "ContenthashChanged",
      "type": "event"
    },
    {
      "anonymous": false,
      "inputs": [
        {
          "indexed": true,
          "internalType": "bytes32",
          "name": "node",
          "type": "bytes32"
        },
        {
          "indexed": false,
          "internalType": "bytes",
          "name": "name",
          "type": "bytes"
        },
        {
          "indexed": false,
          "internalType": "uint16",
          "name": "resource",
          "type": "uint16"
        },
        {
          "indexed": false,
          "internalType": "bytes",
          "name": "record",
          "type": "bytes"
        }
      ],
      "name": "DNSRecordChanged",
      "type": "event"
    },
    {
      "anonymous": false,
      "inputs": [
        {
          "indexed": true,
          "internalType": "bytes32",
          "name": "node",
          "type": "bytes32"
        },
        {
          "indexed": false,
          "internalType": "bytes",
          "name": "name",
          "type": "bytes"
        },
        {
          "indexed": false,
          "internalType": "uint16",
          "name": "resource",
          "type": "uint16"
        }
      ],
      "name": "DNSRecordDeleted",
      "type": "event"
    },
    {
      "anonymous": false,
      "inputs": [
        {
          "indexed": true,
          "internalType": "bytes32",
          "name": "node",
          "type": "bytes32"
        },
        {
          "indexed": false,
          "internalType": "bytes",
          "name": "lastzonehash",
          "type": "bytes"
        },
        {
          "indexed": false,
          "internalType": "bytes",
          "name": "zonehash",
          "type": "bytes"
        }
      ],
      "name": "DNSZonehashChanged",
      "type": "event"
    },
    {
      "anonymous": false,
      "inputs": [
        {
          "indexed": true,
          "internalType": "bytes32",
          "name": "node",
          "type": "bytes32"
        },
        {
          "indexed": true,
          "internalType": "bytes4",
          "name": "interfaceID",
          "type": "bytes4"
        },
        {
          "indexed": false,
          "internalType": "address",
          "name": "implementer",
          "type": "address"
        }
      ],
      "name": "InterfaceChanged",
      "type": "event"
    },
    {
      "anonymous": false,
      "inputs": [
        {
          "indexed": true,
          "internalType": "bytes32",
          "name": "node",
          "type": "bytes32"
        },
        {
          "indexed": false,
          "internalType": "string",
          "name": "name",
          "type": "string"
        }
      ],
      "name": "NameChanged",
      "type": "event"
    },
    {
      "anonymous": false,
      "inputs": [
        {
          "indexed": true,
          "internalType": "address",
          "name": "previousOwner",
          "type": "address"
        },
        {
          "indexed": true,
          "internalType": "address",
          "name": "newOwner",
          "type": "address"
        }
      ],
      "name": "OwnershipTransferred",
      "type": "event"
    },
    {
      "anonymous": false,
      "inputs": [
        {
          "indexed": true,
          "internalType": "bytes32",
          "name": "node",
          "type": "bytes32"
        },
        {
          "indexed": false,
          "internalType": "bytes32",
          "name": "x",
          "type": "bytes32"
        },
        {
          "indexed": false,
          "internalType": "bytes32",
          "name": "y",
          "type": "bytes32"
        }
      ],
      "name": "PubkeyChanged",
      "type": "event"
    },
    {
      "anonymous": false,
      "inputs": [
        {
          "indexed": false,
          "internalType": "address",
          "name": "controller",
          "type": "address"
        }
      ],
      "name": "SetETHController",
      "type": "event"
    },
    {
      "anonymous": false,
      "inputs": [
        {
          "indexed": true,
          "internalType": "bytes32",
          "name": "node",
          "type": "bytes32"
        },
        {
          "indexed": true,
          "internalType": "string",
          "name": "indexedKey",
          "type": "string"
        },
        {
          "indexed": false,
          "internalType": "string",
          "name": "key",
          "type": "string"
        },
        {
          "indexed": false,
          "internalType": "string",
          "name": "value",
          "type": "string"
        }
      ],
      "name": "TextChanged",
      "type": "event"
    },
    {
      "anonymous": false,
      "inputs": [
        {
          "indexed": true,
          "internalType": "bytes32",
          "name": "node",
          "type": "bytes32"
        },
        {
          "indexed": false,
          "internalType": "uint64",
          "name": "newVersion",
          "type": "uint64"
        }
      ],
      "name": "VersionChanged",
      "type": "event"
    },
    {
      "inputs": [
        {
          "internalType": "bytes32",
          "name": "node",
          "type": "bytes32"
        },
        {
          "internalType": "uint256",
          "name": "contentTypes",
          "type": "uint256"
        }
      ],
      "name": "ABI",
      "outputs": [
        {
          "internalType": "uint256",
          "name": "",
          "type": "uint256"
        },
        {
          "internalType": "bytes",
          "name": "",
          "type": "bytes"
        }
      ],
      "stateMutability": "view",
      "type": "function"
    },
    {
      "inputs": [
        {
          "internalType": "bytes32",
          "name": "node",
          "type": "bytes32"
        }
      ],
      "name": "addr",
      "outputs": [
        {
          "internalType": "address payable",
          "name": "",
          "type": "address"
        }
      ],
      "stateMutability": "view",
      "type": "function"
    },
    {
      "inputs": [
        {
          "internalType": "bytes32",
          "name": "node",
          "type": "bytes32"
        },
        {
          "internalType": "uint256",
          "name": "coinType",
          "type": "uint256"
        }
      ],
      "name": "addr",
      "outputs": [
        {
          "internalType": "bytes",
          "name": "",
          "type": "bytes"
        }
      ],
      "stateMutability": "view",
      "type": "function"
    },
    {
      "inputs": [
        {
          "internalType": "bytes32",
          "name": "node",
          "type": "bytes32"
        },
        {
          "internalType": "address",
          "name": "delegate",
          "type": "address"
        },
        {
          "internalType": "bool",
          "name": "approved",
          "type": "bool"
        }
      ],
      "name": "approve",
      "outputs": [],
      "stateMutability": "nonpayable",
      "type": "function"
    },
    {
      "inputs": [
        {
          "internalType": "bytes32",
          "name": "node",
          "type": "bytes32"
        }
      ],
      "name": "clearRecords",
      "outputs": [],
      "stateMutability": "nonpayable",
      "type": "function"
    },
    {
      "inputs": [
        {
          "internalType": "bytes32",
          "name": "node",
          "type": "bytes32"
        }
      ],
      "name": "contenthash",
      "outputs": [
        {
          "internalType": "bytes",
          "name": "",
          "type": "bytes"
        }
      ],
      "stateMutability": "view",
      "type": "function"
    },
    {
      "inputs": [
        {
          "internalType": "bytes32",
          "name": "node",
          "type": "bytes32"
        },
        {
          "internalType": "bytes32",
          "name": "name",
          "type": "bytes32"
        },
        {
          "internalType": "uint16",
          "name": "resource",
          "type": "uint16"
        }
      ],
      "name": "dnsRecord",
      "outputs": [
        {
          "internalType": "bytes",
          "name": "",
          "type": "bytes"
        }
      ],
      "stateMutability": "view",
      "type": "function"
    },
    {
      "inputs": [
        {
          "internalType": "bytes32",
          "name": "node",
          "type": "bytes32"
        },
        {
          "internalType": "bytes32",
          "name": "name",
          "type": "bytes32"
        }
      ],
      "name": "hasDNSRecords",
      "outputs": [
        {
          "internalType": "bool",
          "name": "",
          "type": "bool"
        }
      ],
      "stateMutability": "view",
      "type": "function"
    },
    {
      "inputs": [
        {
          "internalType": "bytes32",
          "name": "node",
          "type": "bytes32"
        },
        {
          "internalType": "bytes4",
          "name": "interfaceID",
          "type": "bytes4"
        }
      ],
      "name": "interfaceImplementer",
      "outputs": [
        {
          "internalType": "address",
          "name": "",
          "type": "address"
        }
      ],
      "stateMutability": "view",
      "type": "function"
    },
    {
      "inputs": [
        {
          "internalType": "address",
          "name": "owner",
          "type": "address"
        },
        {
          "internalType": "bytes32",
          "name": "node",
          "type": "bytes32"
        },
        {
          "internalType": "address",
          "name": "delegate",
          "type": "address"
        }
      ],
      "name": "isApprovedFor",
      "outputs": [
        {
          "internalType": "bool",
          "name": "",
          "type": "bool"
        }
      ],
      "stateMutability": "view",
      "type": "function"
    },
    {
      "inputs": [
        {
          "internalType": "address",
          "name": "account",
          "type": "address"
        },
        {
          "internalType": "address",
          "name": "operator",
          "type": "address"
        }
      ],
      "name": "isApprovedForAll",
      "outputs": [
        {
          "internalType": "bool",
          "name": "",
          "type": "bool"
        }
      ],
      "stateMutability": "view",
      "type": "function"
    },
    {
      "inputs": [
        {
          "internalType": "bytes[]",
          "name": "data",
          "type": "bytes[]"
        }
      ],
      "name": "multicall",
      "outputs": [
        {
          "internalType": "bytes[]",
          "name": "results",
          "type": "bytes[]"
        }
      ],
      "stateMutability": "nonpayable",
      "type": "function"
    },
    {
      "inputs": [
        {
          "internalType": "bytes32",
          "name": "nodehash",
          "type": "bytes32"
        },
        {
          "internalType": "bytes[]",
          "name": "data",
          "type": "bytes[]"
        }
      ],
      "name": "multicallWithNodeCheck",
      "outputs": [
        {
          "internalType": "bytes[]",
          "name": "results",
          "type": "bytes[]"
        }
      ],
      "stateMutability": "nonpayable",
      "type": "function"
    },
    {
      "inputs": [
        {
          "internalType": "bytes32",
          "name": "node",
          "type": "bytes32"
        }
      ],
      "name": "name",
      "outputs": [
        {
          "internalType": "string",
          "name": "",
          "type": "string"
        }
      ],
      "stateMutability": "view",
      "type": "function"
    },
    {
      "inputs": [],
      "name": "owner",
      "outputs": [
        {
          "internalType": "address",
          "name": "",
          "type": "address"
        }
      ],
      "stateMutability": "view",
      "type": "function"
    },
    {
      "inputs": [
        {
          "internalType": "bytes32",
          "name": "node",
          "type": "bytes32"
        }
      ],
      "name": "pubkey",
      "outputs": [
        {
          "internalType": "bytes32",
          "name": "x",
          "type": "bytes32"
        },
        {
          "internalType": "bytes32",
          "name": "y",
          "type": "bytes32"
        }
      ],
      "stateMutability": "view",
      "type": "function"
    },
    {
      "inputs": [
        {
          "internalType": "bytes32",
          "name": "",
          "type": "bytes32"
        }
      ],
      "name": "recordVersions",
      "outputs": [
        {
          "internalType": "uint64",
          "name": "",
          "type": "uint64"
        }
      ],
      "stateMutability": "view",
      "type": "function"
    },
    {
      "inputs": [],
      "name": "renounceOwnership",
      "outputs": [],
      "stateMutability": "nonpayable",
      "type": "function"
    },
    {
      "inputs": [
        {
          "internalType": "bytes32",
          "name": "node",
          "type": "bytes32"
        },
        {
          "internalType": "uint256",
          "name": "contentType",
          "type": "uint256"
        },
        {
          "internalType": "bytes",
          "name": "data",
          "type": "bytes"
        }
      ],
      "name": "setABI",
      "outputs": [],
      "stateMutability": "nonpayable",
      "type": "function"
    },
    {
      "inputs": [
        {
          "internalType": "bytes32",
          "name": "node",
          "type": "bytes32"
        },
        {
          "internalType": "uint256",
          "name": "coinType",
          "type": "uint256"
        },
        {
          "internalType": "bytes",
          "name": "a",
          "type": "bytes"
        }
      ],
      "name": "setAddr",
      "outputs": [],
      "stateMutability": "nonpayable",
      "type": "function"
    },
    {
      "inputs": [
        {
          "internalType": "bytes32",
          "name": "node",
          "type": "bytes32"
        },
        {
          "internalType": "address",
          "name": "a",
          "type": "address"
        }
      ],
      "name": "setAddr",
      "outputs": [],
      "stateMutability": "nonpayable",
      "type": "function"
    },
    {
      "inputs": [
        {
          "internalType": "address",
          "name": "operator",
          "type": "address"
        },
        {
          "internalType": "bool",
          "name": "approved",
          "type": "bool"
        }
      ],
      "name": "setApprovalForAll",
      "outputs": [],
      "stateMutability": "nonpayable",
      "type": "function"
    },
    {
      "inputs": [
        {
          "internalType": "bytes32",
          "name": "node",
          "type": "bytes32"
        },
        {
          "internalType": "bytes",
          "name": "hash",
          "type": "bytes"
        }
      ],
      "name": "setContenthash",
      "outputs": [],
      "stateMutability": "nonpayable",
      "type": "function"
    },
    {
      "inputs": [
        {
          "internalType": "bytes32",
          "name": "node",
          "type": "bytes32"
        },
        {
          "internalType": "bytes",
          "name": "data",
          "type": "bytes"
        }
      ],
      "name": "setDNSRecords",
      "outputs": [],
      "stateMutability": "nonpayable",
      "type": "function"
    },
    {
      "inputs": [
        {
          "internalType": "address",
          "name": "_controller",
          "type": "address"
        }
      ],
      "name": "setETHController",
      "outputs": [],
      "stateMutability": "nonpayable",
      "type": "function"
    },
    {
      "inputs": [
        {
          "internalType": "bytes32",
          "name": "node",
          "type": "bytes32"
        },
        {
          "internalType": "bytes4",
          "name": "interfaceID",
          "type": "bytes4"
        },
        {
          "internalType": "address",
          "name": "implementer",
          "type": "address"
        }
      ],
      "name": "setInterface",
      "outputs": [],
      "stateMutability": "nonpayable",
      "type": "function"
    },
    {
      "inputs": [
        {
          "internalType": "bytes32",
          "name": "node",
          "type": "bytes32"
        },
        {
          "internalType": "string",
          "name": "newName",
          "type": "string"
        }
      ],
      "name": "setName",
      "outputs": [],
      "stateMutability": "nonpayable",
      "type": "function"
    },
    {
      "inputs": [
        {
          "internalType": "bytes32",
          "name": "node",
          "type": "bytes32"
        },
        {
          "internalType": "bytes32",
          "name": "x",
          "type": "bytes32"
        },
        {
          "internalType": "bytes32",
          "name": "y",
          "type": "bytes32"
        }
      ],
      "name": "setPubkey",
      "outputs": [],
      "stateMutability": "nonpayable",
      "type": "function"
    },
    {
      "inputs": [
        {
          "internalType": "bytes32",
          "name": "node",
          "type": "bytes32"
        },
        {
          "internalType": "string",
          "name": "key",
          "type": "string"
        },
        {
          "internalType": "string",
          "name": "value",
          "type": "string"
        }
      ],
      "name": "setText",
      "outputs": [],
      "stateMutability": "nonpayable",
      "type": "function"
    },
    {
      "inputs": [
        {
          "internalType": "bytes32",
          "name": "node",
          "type": "bytes32"
        },
        {
          "internalType": "bytes",
          "name": "hash",
          "type": "bytes"
        }
      ],
      "name": "setZonehash",
      "outputs": [],
      "stateMutability": "nonpayable",
      "type": "function"
    },
    {
      "inputs": [
        {
          "internalType": "bytes4",
          "name": "interfaceID",
          "type": "bytes4"
        }
      ],
      "name": "supportsInterface",
      "outputs": [
        {
          "internalType": "bool",
          "name": "",
          "type": "bool"
        }
      ],
      "stateMutability": "view",
      "type": "function"
    },
    {
      "inputs": [
        {
          "internalType": "bytes32",
          "name": "node",
          "type": "bytes32"
        },
        {
          "internalType": "string",
          "name": "key",
          "type": "string"
        }
      ],
      "name": "text",
      "outputs": [
        {
          "internalType": "string",
          "name": "",
          "type": "string"
        }
      ],
      "stateMutability": "view",
      "type": "function"
    },
    {
      "inputs": [
        {
          "internalType": "address",
          "name": "newOwner",
          "type": "address"
        }
      ],
      "name": "transferOwnership",
      "outputs": [],
      "stateMutability": "nonpayable",
      "type": "function"
    },
    {
      "inputs": [],
      "name": "trustedETHController",
      "outputs": [
        {
          "internalType": "address",
          "name": "",
          "type": "address"
        }
      ],
      "stateMutability": "view",
      "type": "function"
    },
    {
      "inputs": [
        {
          "internalType": "bytes32",
          "name": "node",
          "type": "bytes32"
        }
      ],
      "name": "zonehash",
      "outputs": [
        {
          "internalType": "bytes",
          "name": "",
          "type": "bytes"
        }
      ],
      "stateMutability": "view",
      "type": "function"
    }
  ],
  "transactionHash": "0xc90f811389700ffbecc1d16b1cc43f09c18bda507c45cd52a8a265450b604ce0",
  "args": [
    "0xEC58C26B8E0A4bc0fe1ad21D216e4ecAd9e037A8",
    "0x44640D662A423d738D5ebF8B51E57AfC0f2cf4Df",
    "0xc85E5802BADE56Facb93bb373da6bA7c1902b19c",
    "0xfFF7719aaB38eadE6A1CfdA864a174B715e9d673"
  ],
  "numDeployments": 1,
  "solcInputHash": "9667632af64e70f0b8243344371bdc45",
  "bytecode": "0x60e06040523480156200001157600080fd5b5060405162003589380380620035898339810160408190526200003491620001e4565b833362000041816200017b565b6040516302571be360e01b81527f91d1777781884d03a6757a803996e38de2a42967fb37eeaca72729271025a9e260048201526000906001600160a01b038416906302571be390602401602060405180830381865afa158015620000a9573d6000803e3d6000fd5b505050506040513d601f19601f82011682018060405250810190620000cf91906200024c565b604051630f41a04d60e11b81526001600160a01b03848116600483015291925090821690631e83409a906024016020604051808303816000875af11580156200011c573d6000803e3d6000fd5b505050506040513d601f19601f8201168201806040525081019062000142919062000273565b505050506001600160a01b0393841660805291831660a052600c80546001600160a01b0319169184169190911790551660c0526200028d565b600080546001600160a01b038381166001600160a01b0319831681178455604051919092169283917f8be0079c531659141344cd1fd0a4f28419497f9722a3daafe3b4186f6b6457e09190a35050565b6001600160a01b0381168114620001e157600080fd5b50565b60008060008060808587031215620001fb57600080fd5b84516200020881620001cb565b60208601519094506200021b81620001cb565b60408601519093506200022e81620001cb565b60608601519092506200024181620001cb565b939692955090935050565b6000602082840312156200025f57600080fd5b81516200026c81620001cb565b9392505050565b6000602082840312156200028657600080fd5b5051919050565b60805160a05160c0516132c5620002c460003960006119a0015260008181611a780152611ade01526000611a0101526132c56000f3fe608060405234801561001057600080fd5b50600436106102415760003560e01c80638b95dd7111610145578063c8690233116100bd578063e32954eb1161008c578063e985e9c511610071578063e985e9c5146105d3578063f1cb7e061461060f578063f2fde38b1461062257600080fd5b8063e32954eb146105ad578063e59d895d146105c057600080fd5b8063c8690233146104ea578063ce3decdc14610544578063d5fa2b0014610557578063d700ff331461056a57600080fd5b8063a8fa568211610114578063ac9650d8116100f9578063ac9650d8146104a4578063af4a5f6d146104c4578063bc1c58d1146104d757600080fd5b8063a8fa56821461044d578063a9784b3e1461046057600080fd5b80638b95dd71146104035780638da5cb5b14610416578063a22cb46514610427578063a4b91a011461043a57600080fd5b806337bf7a2f116101d85780635c98042b116101a7578063691f34311161018c578063691f3431146103d5578063715018a6146103e857806377372213146103f057600080fd5b80635c98042b146103af578063623195b0146103c257600080fd5b806337bf7a2f1461031b5780633b3b57de1461032e5780634cbf6ba41461034157806359d1d43c1461038f57600080fd5b80632203ab56116102145780632203ab56146102c157806329cd62ea146102e2578063304e6ade146102f55780633603d7581461030857600080fd5b806301ffc9a7146102465780630af179d71461026e57806310f13a8c14610283578063124a319c14610296575b600080fd5b6102596102543660046127a1565b610635565b60405190151581526020015b60405180910390f35b61028161027c3660046127fe565b610646565b005b61028161029136600461284a565b610852565b6102a96102a43660046128c4565b610921565b6040516001600160a01b039091168152602001610265565b6102d46102cf3660046128f0565b610bcf565b604051610265929190612962565b6102816102f036600461297b565b610d07565b6102816103033660046127fe565b610da9565b6102816103163660046129a7565b610e27565b600c546102a9906001600160a01b031681565b6102a961033c3660046129a7565b610ecc565b61025961034f3660046128f0565b60008281526001602090815260408083205467ffffffffffffffff1683526007825280832094835293815283822092825291909152205461ffff16151590565b6103a261039d3660046127fe565b610efe565b60405161026591906129c0565b6103a26103bd3660046129a7565b610fe0565b6102816103d03660046129d3565b6110a1565b6103a26103e33660046129a7565b611140565b61028161117c565b6102816103fe3660046127fe565b611190565b610281610411366004612a3c565b61120e565b6000546001600160a01b03166102a9565b610281610435366004612b25565b6112f0565b610281610448366004612b51565b6113df565b6103a261045b366004612b8f565b6114ac565b61025961046e366004612bcf565b6001600160a01b039283166000908152600e60209081526040808320948352938152838220929094168152925290205460ff1690565b6104b76104b2366004612c4b565b6114fc565b6040516102659190612c8d565b6102816104d2366004612cef565b61150a565b6103a26104e53660046129a7565b611573565b61052f6104f83660046129a7565b60008181526001602081815260408084205467ffffffffffffffff168452600a825280842094845293905291902080549101549091565b60408051928352602083019190915201610265565b6102816105523660046127fe565b6115af565b610281610565366004612d0c565b6116f4565b6105946105783660046129a7565b60016020526000908152604090205467ffffffffffffffff1681565b60405167ffffffffffffffff9091168152602001610265565b6104b76105bb366004612d3c565b61171b565b6102816105ce366004612d7b565b611730565b6102596105e1366004612db0565b6001600160a01b039182166000908152600d6020908152604080832093909416825291909152205460ff1690565b6103a261061d3660046128f0565b6117e6565b610281610630366004612cef565b6118b0565b600061064082611940565b92915050565b826106508161197e565b61065957600080fd5b6000848152600160209081526040808320548151601f870184900484028101840190925285825283926060928392859267ffffffffffffffff9091169183916106c19183918d908d90819084018382808284376000920191909152509293925050611bc89050565b90505b805151602082015110156107eb578661ffff1660000361072957806040015196506106ee81611c29565b9450846040516020016107019190612dde565b60405160208183030381529060405280519060200120925061072281611c4a565b93506107dd565b600061073482611c29565b9050816040015161ffff168861ffff1614158061075857506107568682611c66565b155b156107db576107b48c878a8e8e8080601f016020809104026020016040519081016040528093929190818152602001838380828437600092019190915250505060208801518d91506107ab908290612e10565b8b51158a611c84565b8160400151975081602001519650809550858051906020012093506107d882611c4a565b94505b505b6107e681611ef1565b6106c4565b50835115610846576108468a85888c8c8080601f0160208091040260200160405190810160405280939291908181526020018383808284376000920191909152508c925061083d91508290508f612e10565b89511588611c84565b50505050505050505050565b8461085c8161197e565b61086557600080fd5b60008681526001602090815260408083205467ffffffffffffffff168352600b8252808320898452909152908190209051849184916108a79089908990612e23565b908152602001604051809103902091826108c2929190612ebb565b5084846040516108d3929190612e23565b6040518091039020867f448bc014f1536726cf8d54ff3d6481ed3cbc683c2591ca204274009afa09b1a1878787876040516109119493929190612fa4565b60405180910390a3505050505050565b60008281526001602090815260408083205467ffffffffffffffff1683526008825280832085845282528083206001600160e01b0319851684529091528120546001600160a01b03168015610977579050610640565b600061098285610ecc565b90506001600160a01b03811661099d57600092505050610640565b6040516301ffc9a760e01b602482015260009081906001600160a01b0384169060440160408051601f198184030181529181526020820180517bffffffffffffffffffffffffffffffffffffffffffffffffffffffff166301ffc9a760e01b17905251610a0a9190612dde565b600060405180830381855afa9150503d8060008114610a45576040519150601f19603f3d011682016040523d82523d6000602084013e610a4a565b606091505b5091509150811580610a5d575060208151105b80610a9f575080601f81518110610a7657610a76612fd6565b01602001517fff0000000000000000000000000000000000000000000000000000000000000016155b15610ab1576000945050505050610640565b6040516001600160e01b0319871660248201526001600160a01b0384169060440160408051601f198184030181529181526020820180517bffffffffffffffffffffffffffffffffffffffffffffffffffffffff166301ffc9a760e01b17905251610b1c9190612dde565b600060405180830381855afa9150503d8060008114610b57576040519150601f19603f3d011682016040523d82523d6000602084013e610b5c565b606091505b509092509050811580610b70575060208151105b80610bb2575080601f81518110610b8957610b89612fd6565b01602001517fff0000000000000000000000000000000000000000000000000000000000000016155b15610bc4576000945050505050610640565b509095945050505050565b60008281526001602081815260408084205467ffffffffffffffff1684526002825280842086855290915282206060915b848111610ce75780851615801590610c30575060008181526020839052604081208054610c2c90612e33565b9050115b15610cdf5780826000838152602001908152602001600020808054610c5490612e33565b80601f0160208091040260200160405190810160405280929190818152602001828054610c8090612e33565b8015610ccd5780601f10610ca257610100808354040283529160200191610ccd565b820191906000526020600020905b815481529060010190602001808311610cb057829003601f168201915b50505050509050935093505050610d00565b60011b610c00565b5060006040518060200160405280600081525092509250505b9250929050565b82610d118161197e565b610d1a57600080fd5b6040805180820182528481526020808201858152600088815260018084528582205467ffffffffffffffff168252600a84528582208a835290935284902092518355519101555184907f1d6f5e03d3f63eb58751986629a5439baee5079ff04f345becb66e23eb154e4690610d9b9086908690918252602082015260400190565b60405180910390a250505050565b82610db38161197e565b610dbc57600080fd5b60008481526001602090815260408083205467ffffffffffffffff168352600482528083208784529091529020610df4838583612ebb565b50837fe379c1624ed7e714cc0937528a32359d69d5281337765313dba4e081b72d75788484604051610d9b929190612fec565b80610e318161197e565b610e3a57600080fd5b6000828152600160205260408120805467ffffffffffffffff1691610e5e83613000565b82546101009290920a67ffffffffffffffff8181021990931691831602179091556000848152600160209081526040918290205491519190921681528492507fc6621ccb8f3f5a04bb6502154b2caf6adf5983fe76dfef1cfc9c42e3579db444910160405180910390a25050565b600080610eda83603c6117e6565b90508051600003610eee5750600092915050565b610ef781611fd9565b9392505050565b60008381526001602090815260408083205467ffffffffffffffff168352600b825280832086845290915290819020905160609190610f409085908590612e23565b90815260200160405180910390208054610f5990612e33565b80601f0160208091040260200160405190810160405280929190818152602001828054610f8590612e33565b8015610fd25780601f10610fa757610100808354040283529160200191610fd2565b820191906000526020600020905b815481529060010190602001808311610fb557829003601f168201915b505050505090509392505050565b60008181526001602090815260408083205467ffffffffffffffff16835260058252808320848452909152902080546060919061101c90612e33565b80601f016020809104026020016040519081016040528092919081815260200182805461104890612e33565b80156110955780601f1061106a57610100808354040283529160200191611095565b820191906000526020600020905b81548152906001019060200180831161107857829003601f168201915b50505050509050919050565b836110ab8161197e565b6110b457600080fd5b836110c0600182612e10565b16156110cb57600080fd5b60008581526001602090815260408083205467ffffffffffffffff168352600282528083208884528252808320878452909152902061110b838583612ebb565b50604051849086907faa121bbeef5f32f5961a2a28966e769023910fc9479059ee3495d4c1a696efe390600090a35050505050565b60008181526001602090815260408083205467ffffffffffffffff16835260098252808320848452909152902080546060919061101c90612e33565b611184612001565b61118e600061205b565b565b8261119a8161197e565b6111a357600080fd5b60008481526001602090815260408083205467ffffffffffffffff1683526009825280832087845290915290206111db838583612ebb565b50837fb7d29e911041e8d9b843369e890bcb72c9388692ba48b65ac54e7214c4c348f78484604051610d9b929190612fec565b826112188161197e565b61122157600080fd5b837f65412581168e88a1e60c6459d7f44ae83ad0832e670826c05a4e2476b57af7528484604051611253929190612962565b60405180910390a2603c83036112aa57837f52d7d861f09ab3d26239d492e8968629f95e9e318cf0b73bfddc441522a15fd261128e84611fd9565b6040516001600160a01b03909116815260200160405180910390a25b60008481526001602090815260408083205467ffffffffffffffff16835260038252808320878452825280832086845290915290206112e98382613027565b5050505050565b6001600160a01b03821633036113735760405162461bcd60e51b815260206004820152602960248201527f455243313135353a2073657474696e6720617070726f76616c2073746174757360448201527f20666f722073656c66000000000000000000000000000000000000000000000060648201526084015b60405180910390fd5b336000818152600d602090815260408083206001600160a01b03871680855290835292819020805460ff191686151590811790915590519081529192917f17307eab39ab6107e8899845ad3d59bd9653f200f220920489ca2b5937696c31910160405180910390a35050565b6001600160a01b03821633036114375760405162461bcd60e51b815260206004820181905260248201527f53657474696e672064656c65676174652073746174757320666f722073656c66604482015260640161136a565b336000818152600e6020908152604080832087845282528083206001600160a01b03871680855290835292819020805460ff191686151590811790915590519384529286917ff0ddb3b04746704017f9aa8bd728fcc2c1d11675041205350018915f5e4750a0910160405180910390a4505050565b60008381526001602090815260408083205467ffffffffffffffff168352600682528083208684528252808320858452825280832061ffff851684529091529020805460609190610f5990612e33565b6060610ef7600084846120b8565b611512612001565b600c805473ffffffffffffffffffffffffffffffffffffffff19166001600160a01b0383169081179091556040519081527fce2e2e1724acf0f5ef60c073fbcfd8397846d9c7fb9c7c0d99ab8e4828449f179060200160405180910390a150565b60008181526001602090815260408083205467ffffffffffffffff16835260048252808320848452909152902080546060919061101c90612e33565b826115b98161197e565b6115c257600080fd5b60008481526001602090815260408083205467ffffffffffffffff1680845260058352818420888552909252822080549192916115fe90612e33565b80601f016020809104026020016040519081016040528092919081815260200182805461162a90612e33565b80156116775780601f1061164c57610100808354040283529160200191611677565b820191906000526020600020905b81548152906001019060200180831161165a57829003601f168201915b5050505067ffffffffffffffff841660009081526005602090815260408083208b845290915290209192506116af9050858783612ebb565b50857f8f15ed4b723ef428f250961da8315675b507046737e19319fc1a4d81bfe87f858287876040516116e4939291906130e7565b60405180910390a2505050505050565b816116fe8161197e565b61170757600080fd5b61171683603c61041185612291565b505050565b60606117288484846120b8565b949350505050565b8261173a8161197e565b61174357600080fd5b60008481526001602090815260408083205467ffffffffffffffff1683526008825280832087845282528083206001600160e01b0319871680855290835292819020805473ffffffffffffffffffffffffffffffffffffffff19166001600160a01b038716908117909155905190815286917f7c69f06bea0bdef565b709e93a147836b0063ba2dd89f02d0b7e8d931e6a6daa910160405180910390a350505050565b60008281526001602090815260408083205467ffffffffffffffff168352600382528083208584528252808320848452909152902080546060919061182a90612e33565b80601f016020809104026020016040519081016040528092919081815260200182805461185690612e33565b80156118a35780601f10611878576101008083540402835291602001916118a3565b820191906000526020600020905b81548152906001019060200180831161188657829003601f168201915b5050505050905092915050565b6118b8612001565b6001600160a01b0381166119345760405162461bcd60e51b815260206004820152602660248201527f4f776e61626c653a206e6577206f776e657220697320746865207a65726f206160448201527f6464726573730000000000000000000000000000000000000000000000000000606482015260840161136a565b61193d8161205b565b50565b60006001600160e01b031982167f59d1d43c0000000000000000000000000000000000000000000000000000000014806106405750610640826122ca565b600c546000906001600160a01b03163314806119c25750336001600160a01b037f000000000000000000000000000000000000000000000000000000000000000016145b156119cf57506001919050565b6040517f02571be3000000000000000000000000000000000000000000000000000000008152600481018390526000907f00000000000000000000000000000000000000000000000000000000000000006001600160a01b0316906302571be390602401602060405180830381865afa158015611a50573d6000803e3d6000fd5b505050506040513d601f19601f82011682018060405250810190611a749190613117565b90507f00000000000000000000000000000000000000000000000000000000000000006001600160a01b0316816001600160a01b031603611b54576040517f6352211e000000000000000000000000000000000000000000000000000000008152600481018490527f00000000000000000000000000000000000000000000000000000000000000006001600160a01b031690636352211e90602401602060405180830381865afa158015611b2d573d6000803e3d6000fd5b505050506040513d601f19601f82011682018060405250810190611b519190613117565b90505b6001600160a01b038116331480611b8e57506001600160a01b0381166000908152600d6020908152604080832033845290915290205460ff165b80610ef757506001600160a01b0381166000908152600e60209081526040808320868452825280832033845290915290205460ff16610ef7565b611c166040518060e001604052806060815260200160008152602001600061ffff168152602001600061ffff168152602001600063ffffffff16815260200160008152602001600081525090565b82815260c0810182905261064081611ef1565b6020810151815160609161064091611c419082612308565b84519190612362565b60a081015160c082015160609161064091611c41908290612e10565b600081518351148015610ef75750610ef783600084600087516123d9565b865160208801206000611c98878787612362565b90508315611dc25767ffffffffffffffff831660009081526006602090815260408083208d84528252808320858452825280832061ffff8c16845290915290208054611ce390612e33565b159050611d425767ffffffffffffffff831660009081526007602090815260408083208d845282528083208584529091528120805461ffff1691611d2683613134565b91906101000a81548161ffff021916908361ffff160217905550505b67ffffffffffffffff831660009081526006602090815260408083208d84528252808320858452825280832061ffff8c1684529091528120611d8391612736565b897f03528ed0c2a3ebc993b12ce3c16bb382f9c7d88ef7d8a1bf290eaf35955a12078a8a604051611db5929190613152565b60405180910390a2610846565b67ffffffffffffffff831660009081526006602090815260408083208d84528252808320858452825280832061ffff8c16845290915290208054611e0590612e33565b9050600003611e665767ffffffffffffffff831660009081526007602090815260408083208d845282528083208584529091528120805461ffff1691611e4a83613178565b91906101000a81548161ffff021916908361ffff160217905550505b67ffffffffffffffff831660009081526006602090815260408083208d84528252808320858452825280832061ffff8c1684529091529020611ea88282613027565b50897f52a608b3303a48862d07a73d82fa221318c0027fbbcfb1b2329bface3f19ff2b8a8a84604051611edd9392919061318f565b60405180910390a250505050505050505050565b60c08101516020820181905281515111611f085750565b6000611f1c82600001518360200151612308565b8260200151611f2b91906131be565b8251909150611f3a90826123fc565b61ffff166040830152611f4e6002826131be565b8251909150611f5d90826123fc565b61ffff166060830152611f716002826131be565b8251909150611f809082612424565b63ffffffff166080830152611f966004826131be565b8251909150600090611fa890836123fc565b61ffff169050611fb96002836131be565b60a084018190529150611fcc81836131be565b60c0909301929092525050565b60008151601414611fe957600080fd5b50602001516c01000000000000000000000000900490565b6000546001600160a01b0316331461118e5760405162461bcd60e51b815260206004820181905260248201527f4f776e61626c653a2063616c6c6572206973206e6f7420746865206f776e6572604482015260640161136a565b600080546001600160a01b0383811673ffffffffffffffffffffffffffffffffffffffff19831681178455604051919092169283917f8be0079c531659141344cd1fd0a4f28419497f9722a3daafe3b4186f6b6457e09190a35050565b60608167ffffffffffffffff8111156120d3576120d3612a26565b60405190808252806020026020018201604052801561210657816020015b60608152602001906001900390816120f15790505b50905060005b828110156122895784156121d157600084848381811061212e5761212e612fd6565b905060200281019061214091906131d1565b61214f91602491600491613218565b61215891613242565b90508581146121cf5760405162461bcd60e51b815260206004820152603460248201527f6d756c746963616c6c3a20416c6c207265636f726473206d757374206861766560448201527f2061206d61746368696e67206e616d6568617368000000000000000000000000606482015260840161136a565b505b600080308686858181106121e7576121e7612fd6565b90506020028101906121f991906131d1565b604051612207929190612e23565b600060405180830381855af49150503d8060008114612242576040519150601f19603f3d011682016040523d82523d6000602084013e612247565b606091505b50915091508161225657600080fd5b8084848151811061226957612269612fd6565b60200260200101819052505050808061228190613260565b91505061210c565b509392505050565b6040805160148082528183019092526060916020820181803683375050506c010000000000000000000000009290920260208301525090565b60006001600160e01b031982167fc869023300000000000000000000000000000000000000000000000000000000148061064057506106408261244e565b6000815b8351811061231c5761231c613279565b6000612328858361248c565b60ff1690506123388160016131be565b61234290836131be565b9150806000036123525750612358565b5061230c565b6117288382612e10565b825160609061237183856131be565b111561237c57600080fd5b60008267ffffffffffffffff81111561239757612397612a26565b6040519080825280601f01601f1916602001820160405280156123c1576020820181803683370190505b50905060208082019086860101610bc48282876124b0565b60006123e6848484612506565b6123f1878785612506565b149695505050505050565b815160009061240c8360026131be565b111561241757600080fd5b50016002015161ffff1690565b81516000906124348360046131be565b111561243f57600080fd5b50016004015163ffffffff1690565b60006001600160e01b031982167f691f343100000000000000000000000000000000000000000000000000000000148061064057506106408261252a565b60008282815181106124a0576124a0612fd6565b016020015160f81c905092915050565b602081106124e857815183526124c76020846131be565b92506124d46020836131be565b91506124e1602082612e10565b90506124b0565b905182516020929092036101000a6000190180199091169116179052565b825160009061251583856131be565b111561252057600080fd5b5091016020012090565b60006001600160e01b031982167f124a319c00000000000000000000000000000000000000000000000000000000148061064057506106408260006001600160e01b031982167fa8fa56820000000000000000000000000000000000000000000000000000000014806125c657506001600160e01b031982167f5c98042b00000000000000000000000000000000000000000000000000000000145b8061064057506106408260006001600160e01b031982167fbc1c58d100000000000000000000000000000000000000000000000000000000148061064057506106408260006001600160e01b031982167f3b3b57de00000000000000000000000000000000000000000000000000000000148061266c57506001600160e01b031982167ff1cb7e0600000000000000000000000000000000000000000000000000000000145b8061064057506106408260006001600160e01b031982167f2203ab5600000000000000000000000000000000000000000000000000000000148061064057506106408260006001600160e01b031982167fd700ff3300000000000000000000000000000000000000000000000000000000148061064057506106408260006001600160e01b031982167f4fbf043300000000000000000000000000000000000000000000000000000000148061064057506301ffc9a760e01b6001600160e01b0319831614610640565b50805461274290612e33565b6000825580601f10612752575050565b601f01602090049060005260206000209081019061193d91905b80821115612780576000815560010161276c565b5090565b80356001600160e01b03198116811461279c57600080fd5b919050565b6000602082840312156127b357600080fd5b610ef782612784565b60008083601f8401126127ce57600080fd5b50813567ffffffffffffffff8111156127e657600080fd5b602083019150836020828501011115610d0057600080fd5b60008060006040848603121561281357600080fd5b83359250602084013567ffffffffffffffff81111561283157600080fd5b61283d868287016127bc565b9497909650939450505050565b60008060008060006060868803121561286257600080fd5b85359450602086013567ffffffffffffffff8082111561288157600080fd5b61288d89838a016127bc565b909650945060408801359150808211156128a657600080fd5b506128b3888289016127bc565b969995985093965092949392505050565b600080604083850312156128d757600080fd5b823591506128e760208401612784565b90509250929050565b6000806040838503121561290357600080fd5b50508035926020909101359150565b60005b8381101561292d578181015183820152602001612915565b50506000910152565b6000815180845261294e816020860160208601612912565b601f01601f19169290920160200192915050565b8281526040602082015260006117286040830184612936565b60008060006060848603121561299057600080fd5b505081359360208301359350604090920135919050565b6000602082840312156129b957600080fd5b5035919050565b602081526000610ef76020830184612936565b600080600080606085870312156129e957600080fd5b8435935060208501359250604085013567ffffffffffffffff811115612a0e57600080fd5b612a1a878288016127bc565b95989497509550505050565b634e487b7160e01b600052604160045260246000fd5b600080600060608486031215612a5157600080fd5b8335925060208401359150604084013567ffffffffffffffff80821115612a7757600080fd5b818601915086601f830112612a8b57600080fd5b813581811115612a9d57612a9d612a26565b604051601f8201601f19908116603f01168101908382118183101715612ac557612ac5612a26565b81604052828152896020848701011115612ade57600080fd5b8260208601602083013760006020848301015280955050505050509250925092565b6001600160a01b038116811461193d57600080fd5b8035801515811461279c57600080fd5b60008060408385031215612b3857600080fd5b8235612b4381612b00565b91506128e760208401612b15565b600080600060608486031215612b6657600080fd5b833592506020840135612b7881612b00565b9150612b8660408501612b15565b90509250925092565b600080600060608486031215612ba457600080fd5b8335925060208401359150604084013561ffff81168114612bc457600080fd5b809150509250925092565b600080600060608486031215612be457600080fd5b8335612bef81612b00565b9250602084013591506040840135612bc481612b00565b60008083601f840112612c1857600080fd5b50813567ffffffffffffffff811115612c3057600080fd5b6020830191508360208260051b8501011115610d0057600080fd5b60008060208385031215612c5e57600080fd5b823567ffffffffffffffff811115612c7557600080fd5b612c8185828601612c06565b90969095509350505050565b6000602080830181845280855180835260408601915060408160051b870101925083870160005b82811015612ce257603f19888603018452612cd0858351612936565b94509285019290850190600101612cb4565b5092979650505050505050565b600060208284031215612d0157600080fd5b8135610ef781612b00565b60008060408385031215612d1f57600080fd5b823591506020830135612d3181612b00565b809150509250929050565b600080600060408486031215612d5157600080fd5b83359250602084013567ffffffffffffffff811115612d6f57600080fd5b61283d86828701612c06565b600080600060608486031215612d9057600080fd5b83359250612da060208501612784565b91506040840135612bc481612b00565b60008060408385031215612dc357600080fd5b8235612dce81612b00565b91506020830135612d3181612b00565b60008251612df0818460208701612912565b9190910192915050565b634e487b7160e01b600052601160045260246000fd5b8181038181111561064057610640612dfa565b8183823760009101908152919050565b600181811c90821680612e4757607f821691505b602082108103612e6757634e487b7160e01b600052602260045260246000fd5b50919050565b601f82111561171657600081815260208120601f850160051c81016020861015612e945750805b601f850160051c820191505b81811015612eb357828155600101612ea0565b505050505050565b67ffffffffffffffff831115612ed357612ed3612a26565b612ee783612ee18354612e33565b83612e6d565b6000601f841160018114612f1b5760008515612f035750838201355b600019600387901b1c1916600186901b1783556112e9565b600083815260209020601f19861690835b82811015612f4c5786850135825560209485019460019092019101612f2c565b5086821015612f695760001960f88860031b161c19848701351681555b505060018560011b0183555050505050565b81835281816020850137506000828201602090810191909152601f909101601f19169091010190565b604081526000612fb8604083018688612f7b565b8281036020840152612fcb818587612f7b565b979650505050505050565b634e487b7160e01b600052603260045260246000fd5b602081526000611728602083018486612f7b565b600067ffffffffffffffff80831681810361301d5761301d612dfa565b6001019392505050565b815167ffffffffffffffff81111561304157613041612a26565b6130558161304f8454612e33565b84612e6d565b602080601f83116001811461308a57600084156130725750858301515b600019600386901b1c1916600185901b178555612eb3565b600085815260208120601f198616915b828110156130b95788860151825594840194600190910190840161309a565b50858210156130d75787850151600019600388901b60f8161c191681555b5050505050600190811b01905550565b6040815260006130fa6040830186612936565b828103602084015261310d818587612f7b565b9695505050505050565b60006020828403121561312957600080fd5b8151610ef781612b00565b600061ffff82168061314857613148612dfa565b6000190192915050565b6040815260006131656040830185612936565b905061ffff831660208301529392505050565b600061ffff80831681810361301d5761301d612dfa565b6060815260006131a26060830186612936565b61ffff85166020840152828103604084015261310d8185612936565b8082018082111561064057610640612dfa565b6000808335601e198436030181126131e857600080fd5b83018035915067ffffffffffffffff82111561320357600080fd5b602001915036819003821315610d0057600080fd5b6000808585111561322857600080fd5b8386111561323557600080fd5b5050820193919092039150565b8035602083101561064057600019602084900360031b1b1692915050565b60006001820161327257613272612dfa565b5060010190565b634e487b7160e01b600052600160045260246000fdfea264697066735822122054cd562a646e8cf8d0d2c7644bed8cc9c56090e9e7f4052c23925ed6e9ea015564736f6c63430008110033",
  "devdoc": {
    "kind": "dev",
    "methods": {
      "ABI(bytes32,uint256)": {
        "params": {
          "contentTypes": "A bitwise OR of the ABI formats accepted by the caller.",
          "node": "The RNS node to query"
        },
        "returns": {
          "_0": "contentType The content type of the return value",
          "_1": "data The ABI data"
        }
      },
      "addr(bytes32)": {
        "params": {
          "node": "The RNS node to query."
        },
        "returns": {
          "_0": "The associated address."
        }
      },
      "approve(bytes32,address,bool)": {
        "details": "Approve a delegate to be able to updated records on a node."
      },
      "clearRecords(bytes32)": {
        "params": {
          "node": "The node to update."
        }
      },
      "contenthash(bytes32)": {
        "params": {
          "node": "The RNS node to query."
        },
        "returns": {
          "_0": "The associated contenthash."
        }
      },
      "dnsRecord(bytes32,bytes32,uint16)": {
        "params": {
          "name": "the keccak-256 hash of the fully-qualified name for which to fetch the record",
          "node": "the namehash of the node for which to fetch the record",
          "resource": "the ID of the resource as per https://en.wikipedia.org/wiki/List_of_DNS_record_types"
        },
        "returns": {
          "_0": "the DNS record in wire format if present, otherwise empty"
        }
      },
      "hasDNSRecords(bytes32,bytes32)": {
        "params": {
          "name": "the namehash of the node for which to check the records",
          "node": "the namehash of the node for which to check the records"
        }
      },
      "interfaceImplementer(bytes32,bytes4)": {
        "params": {
          "interfaceID": "The EIP 165 interface ID to check for.",
          "node": "The RNS node to query."
        },
        "returns": {
          "_0": "The address that implements this interface, or 0 if the interface is unsupported."
        }
      },
      "isApprovedFor(address,bytes32,address)": {
        "details": "Check to see if the delegate has been approved by the owner for the node."
      },
      "isApprovedForAll(address,address)": {
        "details": "See {IERC1155-isApprovedForAll}."
      },
      "name(bytes32)": {
        "params": {
          "node": "The RNS node to query."
        },
        "returns": {
          "_0": "The associated name."
        }
      },
      "owner()": {
        "details": "Returns the address of the current owner."
      },
      "pubkey(bytes32)": {
        "params": {
          "node": "The RNS node to query"
        },
        "returns": {
          "x": "The X coordinate of the curve point for the public key.",
          "y": "The Y coordinate of the curve point for the public key."
        }
      },
      "renounceOwnership()": {
        "details": "Leaves the contract without owner. It will not be possible to call `onlyOwner` functions anymore. Can only be called by the current owner. NOTE: Renouncing ownership will leave the contract without an owner, thereby removing any functionality that is only available to the owner."
      },
      "setABI(bytes32,uint256,bytes)": {
        "params": {
          "contentType": "The content type of the ABI",
          "data": "The ABI data.",
          "node": "The node to update."
        }
      },
      "setAddr(bytes32,address)": {
        "params": {
          "a": "The address to set.",
          "node": "The node to update."
        }
      },
      "setApprovalForAll(address,bool)": {
        "details": "See {IERC1155-setApprovalForAll}."
      },
      "setContenthash(bytes32,bytes)": {
        "params": {
          "hash": "The contenthash to set",
          "node": "The node to update."
        }
      },
      "setDNSRecords(bytes32,bytes)": {
        "params": {
          "data": "the DNS wire format records to set",
          "node": "the namehash of the node for which to set the records"
        }
      },
      "setInterface(bytes32,bytes4,address)": {
        "params": {
          "implementer": "The address of a contract that implements this interface for this node.",
          "interfaceID": "The EIP 165 interface ID.",
          "node": "The node to update."
        }
      },
      "setName(bytes32,string)": {
        "params": {
          "node": "The node to update."
        }
      },
      "setPubkey(bytes32,bytes32,bytes32)": {
        "params": {
          "node": "The RNS node to query",
          "x": "the X coordinate of the curve point for the public key.",
          "y": "the Y coordinate of the curve point for the public key."
        }
      },
      "setText(bytes32,string,string)": {
        "params": {
          "key": "The key to set.",
          "node": "The node to update.",
          "value": "The text data value to set."
        }
      },
      "setZonehash(bytes32,bytes)": {
        "params": {
          "hash": "The zonehash to set",
          "node": "The node to update."
        }
      },
      "text(bytes32,string)": {
        "params": {
          "key": "The text data key to query.",
          "node": "The RNS node to query."
        },
        "returns": {
          "_0": "The associated text data."
        }
      },
      "transferOwnership(address)": {
        "details": "Transfers ownership of the contract to a new account (`newOwner`). Can only be called by the current owner."
      },
      "zonehash(bytes32)": {
        "params": {
          "node": "The RNS node to query."
        },
        "returns": {
          "_0": "The associated contenthash."
        }
      }
    },
    "version": 1
  },
  "userdoc": {
    "kind": "user",
    "methods": {
      "ABI(bytes32,uint256)": {
        "notice": "Returns the ABI associated with an RNS node. Defined in EIP205."
      },
      "addr(bytes32)": {
        "notice": "Returns the address associated with an RNS node."
      },
      "clearRecords(bytes32)": {
        "notice": "Increments the record version associated with an RNS node. May only be called by the owner of that node in the RNS registry."
      },
      "contenthash(bytes32)": {
        "notice": "Returns the contenthash associated with an RNS node."
      },
      "dnsRecord(bytes32,bytes32,uint16)": {
        "notice": "Obtain a DNS record."
      },
      "hasDNSRecords(bytes32,bytes32)": {
        "notice": "Check if a given node has records."
      },
      "interfaceImplementer(bytes32,bytes4)": {
        "notice": "Returns the address of a contract that implements the specified interface for this name. If an implementer has not been set for this interfaceID and name, the resolver will query the contract at `addr()`. If `addr()` is set, a contract exists at that address, and that contract implements EIP165 and returns `true` for the specified interfaceID, its address will be returned."
      },
      "name(bytes32)": {
        "notice": "Returns the name associated with an RNS node, for reverse records. Defined in EIP181."
      },
      "pubkey(bytes32)": {
        "notice": "Returns the SECP256k1 public key associated with an RNS node. Defined in EIP 619."
      },
      "setABI(bytes32,uint256,bytes)": {
        "notice": "Sets the ABI associated with an RNS node. Nodes may have one ABI of each content type. To remove an ABI, set it to the empty string."
      },
      "setAddr(bytes32,address)": {
        "notice": "Sets the address associated with an RNS node. May only be called by the owner of that node in the RNS registry."
      },
      "setContenthash(bytes32,bytes)": {
        "notice": "Sets the contenthash associated with an RNS node. May only be called by the owner of that node in the RNS registry."
      },
      "setDNSRecords(bytes32,bytes)": {
        "notice": "Set one or more DNS records.  Records are supplied in wire-format. Records with the same node/name/resource must be supplied one after the other to ensure the data is updated correctly. For example, if the data was supplied:     a.example.com IN A 1.2.3.4     a.example.com IN A 5.6.7.8     www.example.com IN CNAME a.example.com. then this would store the two A records for a.example.com correctly as a single RRSET, however if the data was supplied:     a.example.com IN A 1.2.3.4     www.example.com IN CNAME a.example.com.     a.example.com IN A 5.6.7.8 then this would store the first A record, the CNAME, then the second A record which would overwrite the first."
      },
      "setInterface(bytes32,bytes4,address)": {
        "notice": "Sets an interface associated with a name. Setting the address to 0 restores the default behaviour of querying the contract at `addr()` for interface support."
      },
      "setName(bytes32,string)": {
        "notice": "Sets the name associated with an RNS node, for reverse records. May only be called by the owner of that node in the RNS registry."
      },
      "setPubkey(bytes32,bytes32,bytes32)": {
        "notice": "Sets the SECP256k1 public key associated with an RNS node."
      },
      "setText(bytes32,string,string)": {
        "notice": "Sets the text data associated with an RNS node and key. May only be called by the owner of that node in the RNS registry."
      },
      "setZonehash(bytes32,bytes)": {
        "notice": "setZonehash sets the hash for the zone. May only be called by the owner of that node in the RNS registry."
      },
      "text(bytes32,string)": {
        "notice": "Returns the text data associated with an RNS node and key."
      },
      "zonehash(bytes32)": {
        "notice": "zonehash obtains the hash for the zone."
      }
    },
    "notice": "A simple resolver anyone can use; only allows the owner of a node to set its address.",
    "version": 1
  },
  "storageLayout": {
    "storage": [
      {
        "astId": 444,
        "contract": "contracts/resolvers/PublicResolver.sol:PublicResolver",
        "label": "_owner",
        "offset": 0,
        "slot": "0",
        "type": "t_address"
      },
      {
        "astId": 17186,
        "contract": "contracts/resolvers/PublicResolver.sol:PublicResolver",
        "label": "recordVersions",
        "offset": 0,
        "slot": "1",
        "type": "t_mapping(t_bytes32,t_uint64)"
      },
      {
        "astId": 17280,
        "contract": "contracts/resolvers/PublicResolver.sol:PublicResolver",
        "label": "versionable_abis",
        "offset": 0,
        "slot": "2",
        "type": "t_mapping(t_uint64,t_mapping(t_bytes32,t_mapping(t_uint256,t_bytes_storage)))"
      },
      {
        "astId": 17434,
        "contract": "contracts/resolvers/PublicResolver.sol:PublicResolver",
        "label": "versionable_addresses",
        "offset": 0,
        "slot": "3",
        "type": "t_mapping(t_uint64,t_mapping(t_bytes32,t_mapping(t_uint256,t_bytes_storage)))"
      },
      {
        "astId": 17625,
        "contract": "contracts/resolvers/PublicResolver.sol:PublicResolver",
        "label": "versionable_hashes",
        "offset": 0,
        "slot": "4",
        "type": "t_mapping(t_uint64,t_mapping(t_bytes32,t_bytes_storage))"
      },
      {
        "astId": 17715,
        "contract": "contracts/resolvers/PublicResolver.sol:PublicResolver",
        "label": "versionable_zonehashes",
        "offset": 0,
        "slot": "5",
        "type": "t_mapping(t_uint64,t_mapping(t_bytes32,t_bytes_storage))"
      },
      {
        "astId": 17725,
        "contract": "contracts/resolvers/PublicResolver.sol:PublicResolver",
        "label": "versionable_records",
        "offset": 0,
        "slot": "6",
        "type": "t_mapping(t_uint64,t_mapping(t_bytes32,t_mapping(t_bytes32,t_mapping(t_uint16,t_bytes_storage))))"
      },
      {
        "astId": 17733,
        "contract": "contracts/resolvers/PublicResolver.sol:PublicResolver",
        "label": "versionable_nameEntriesCount",
        "offset": 0,
        "slot": "7",
        "type": "t_mapping(t_uint64,t_mapping(t_bytes32,t_mapping(t_bytes32,t_uint16)))"
      },
      {
        "astId": 18471,
        "contract": "contracts/resolvers/PublicResolver.sol:PublicResolver",
        "label": "versionable_interfaces",
        "offset": 0,
        "slot": "8",
        "type": "t_mapping(t_uint64,t_mapping(t_bytes32,t_mapping(t_bytes4,t_address)))"
      },
      {
        "astId": 18663,
        "contract": "contracts/resolvers/PublicResolver.sol:PublicResolver",
        "label": "versionable_names",
        "offset": 0,
        "slot": "9",
        "type": "t_mapping(t_uint64,t_mapping(t_bytes32,t_string_storage))"
      },
      {
        "astId": 18750,
        "contract": "contracts/resolvers/PublicResolver.sol:PublicResolver",
        "label": "versionable_pubkeys",
        "offset": 0,
        "slot": "10",
        "type": "t_mapping(t_uint64,t_mapping(t_bytes32,t_struct(PublicKey)18743_storage))"
      },
      {
        "astId": 18853,
        "contract": "contracts/resolvers/PublicResolver.sol:PublicResolver",
        "label": "versionable_texts",
        "offset": 0,
        "slot": "11",
        "type": "t_mapping(t_uint64,t_mapping(t_bytes32,t_mapping(t_string_memory_ptr,t_string_storage)))"
      },
      {
        "astId": 16686,
        "contract": "contracts/resolvers/PublicResolver.sol:PublicResolver",
        "label": "trustedETHController",
        "offset": 0,
        "slot": "12",
        "type": "t_address"
      },
      {
        "astId": 16695,
        "contract": "contracts/resolvers/PublicResolver.sol:PublicResolver",
        "label": "_operatorApprovals",
        "offset": 0,
        "slot": "13",
        "type": "t_mapping(t_address,t_mapping(t_address,t_bool))"
      },
      {
        "astId": 16704,
        "contract": "contracts/resolvers/PublicResolver.sol:PublicResolver",
        "label": "_tokenApprovals",
        "offset": 0,
        "slot": "14",
        "type": "t_mapping(t_address,t_mapping(t_bytes32,t_mapping(t_address,t_bool)))"
      }
    ],
    "types": {
      "t_address": {
        "encoding": "inplace",
        "label": "address",
        "numberOfBytes": "20"
      },
      "t_bool": {
        "encoding": "inplace",
        "label": "bool",
        "numberOfBytes": "1"
      },
      "t_bytes32": {
        "encoding": "inplace",
        "label": "bytes32",
        "numberOfBytes": "32"
      },
      "t_bytes4": {
        "encoding": "inplace",
        "label": "bytes4",
        "numberOfBytes": "4"
      },
      "t_bytes_storage": {
        "encoding": "bytes",
        "label": "bytes",
        "numberOfBytes": "32"
      },
      "t_mapping(t_address,t_bool)": {
        "encoding": "mapping",
        "key": "t_address",
        "label": "mapping(address => bool)",
        "numberOfBytes": "32",
        "value": "t_bool"
      },
      "t_mapping(t_address,t_mapping(t_address,t_bool))": {
        "encoding": "mapping",
        "key": "t_address",
        "label": "mapping(address => mapping(address => bool))",
        "numberOfBytes": "32",
        "value": "t_mapping(t_address,t_bool)"
      },
      "t_mapping(t_address,t_mapping(t_bytes32,t_mapping(t_address,t_bool)))": {
        "encoding": "mapping",
        "key": "t_address",
        "label": "mapping(address => mapping(bytes32 => mapping(address => bool)))",
        "numberOfBytes": "32",
        "value": "t_mapping(t_bytes32,t_mapping(t_address,t_bool))"
      },
      "t_mapping(t_bytes32,t_bytes_storage)": {
        "encoding": "mapping",
        "key": "t_bytes32",
        "label": "mapping(bytes32 => bytes)",
        "numberOfBytes": "32",
        "value": "t_bytes_storage"
      },
      "t_mapping(t_bytes32,t_mapping(t_address,t_bool))": {
        "encoding": "mapping",
        "key": "t_bytes32",
        "label": "mapping(bytes32 => mapping(address => bool))",
        "numberOfBytes": "32",
        "value": "t_mapping(t_address,t_bool)"
      },
      "t_mapping(t_bytes32,t_mapping(t_bytes32,t_mapping(t_uint16,t_bytes_storage)))": {
        "encoding": "mapping",
        "key": "t_bytes32",
        "label": "mapping(bytes32 => mapping(bytes32 => mapping(uint16 => bytes)))",
        "numberOfBytes": "32",
        "value": "t_mapping(t_bytes32,t_mapping(t_uint16,t_bytes_storage))"
      },
      "t_mapping(t_bytes32,t_mapping(t_bytes32,t_uint16))": {
        "encoding": "mapping",
        "key": "t_bytes32",
        "label": "mapping(bytes32 => mapping(bytes32 => uint16))",
        "numberOfBytes": "32",
        "value": "t_mapping(t_bytes32,t_uint16)"
      },
      "t_mapping(t_bytes32,t_mapping(t_bytes4,t_address))": {
        "encoding": "mapping",
        "key": "t_bytes32",
        "label": "mapping(bytes32 => mapping(bytes4 => address))",
        "numberOfBytes": "32",
        "value": "t_mapping(t_bytes4,t_address)"
      },
      "t_mapping(t_bytes32,t_mapping(t_string_memory_ptr,t_string_storage))": {
        "encoding": "mapping",
        "key": "t_bytes32",
        "label": "mapping(bytes32 => mapping(string => string))",
        "numberOfBytes": "32",
        "value": "t_mapping(t_string_memory_ptr,t_string_storage)"
      },
      "t_mapping(t_bytes32,t_mapping(t_uint16,t_bytes_storage))": {
        "encoding": "mapping",
        "key": "t_bytes32",
        "label": "mapping(bytes32 => mapping(uint16 => bytes))",
        "numberOfBytes": "32",
        "value": "t_mapping(t_uint16,t_bytes_storage)"
      },
      "t_mapping(t_bytes32,t_mapping(t_uint256,t_bytes_storage))": {
        "encoding": "mapping",
        "key": "t_bytes32",
        "label": "mapping(bytes32 => mapping(uint256 => bytes))",
        "numberOfBytes": "32",
        "value": "t_mapping(t_uint256,t_bytes_storage)"
      },
      "t_mapping(t_bytes32,t_string_storage)": {
        "encoding": "mapping",
        "key": "t_bytes32",
        "label": "mapping(bytes32 => string)",
        "numberOfBytes": "32",
        "value": "t_string_storage"
      },
      "t_mapping(t_bytes32,t_struct(PublicKey)18743_storage)": {
        "encoding": "mapping",
        "key": "t_bytes32",
        "label": "mapping(bytes32 => struct PubkeyResolver.PublicKey)",
        "numberOfBytes": "32",
        "value": "t_struct(PublicKey)18743_storage"
      },
      "t_mapping(t_bytes32,t_uint16)": {
        "encoding": "mapping",
        "key": "t_bytes32",
        "label": "mapping(bytes32 => uint16)",
        "numberOfBytes": "32",
        "value": "t_uint16"
      },
      "t_mapping(t_bytes32,t_uint64)": {
        "encoding": "mapping",
        "key": "t_bytes32",
        "label": "mapping(bytes32 => uint64)",
        "numberOfBytes": "32",
        "value": "t_uint64"
      },
      "t_mapping(t_bytes4,t_address)": {
        "encoding": "mapping",
        "key": "t_bytes4",
        "label": "mapping(bytes4 => address)",
        "numberOfBytes": "32",
        "value": "t_address"
      },
      "t_mapping(t_string_memory_ptr,t_string_storage)": {
        "encoding": "mapping",
        "key": "t_string_memory_ptr",
        "label": "mapping(string => string)",
        "numberOfBytes": "32",
        "value": "t_string_storage"
      },
      "t_mapping(t_uint16,t_bytes_storage)": {
        "encoding": "mapping",
        "key": "t_uint16",
        "label": "mapping(uint16 => bytes)",
        "numberOfBytes": "32",
        "value": "t_bytes_storage"
      },
      "t_mapping(t_uint256,t_bytes_storage)": {
        "encoding": "mapping",
        "key": "t_uint256",
        "label": "mapping(uint256 => bytes)",
        "numberOfBytes": "32",
        "value": "t_bytes_storage"
      },
      "t_mapping(t_uint64,t_mapping(t_bytes32,t_bytes_storage))": {
        "encoding": "mapping",
        "key": "t_uint64",
        "label": "mapping(uint64 => mapping(bytes32 => bytes))",
        "numberOfBytes": "32",
        "value": "t_mapping(t_bytes32,t_bytes_storage)"
      },
      "t_mapping(t_uint64,t_mapping(t_bytes32,t_mapping(t_bytes32,t_mapping(t_uint16,t_bytes_storage))))": {
        "encoding": "mapping",
        "key": "t_uint64",
        "label": "mapping(uint64 => mapping(bytes32 => mapping(bytes32 => mapping(uint16 => bytes))))",
        "numberOfBytes": "32",
        "value": "t_mapping(t_bytes32,t_mapping(t_bytes32,t_mapping(t_uint16,t_bytes_storage)))"
      },
      "t_mapping(t_uint64,t_mapping(t_bytes32,t_mapping(t_bytes32,t_uint16)))": {
        "encoding": "mapping",
        "key": "t_uint64",
        "label": "mapping(uint64 => mapping(bytes32 => mapping(bytes32 => uint16)))",
        "numberOfBytes": "32",
        "value": "t_mapping(t_bytes32,t_mapping(t_bytes32,t_uint16))"
      },
      "t_mapping(t_uint64,t_mapping(t_bytes32,t_mapping(t_bytes4,t_address)))": {
        "encoding": "mapping",
        "key": "t_uint64",
        "label": "mapping(uint64 => mapping(bytes32 => mapping(bytes4 => address)))",
        "numberOfBytes": "32",
        "value": "t_mapping(t_bytes32,t_mapping(t_bytes4,t_address))"
      },
      "t_mapping(t_uint64,t_mapping(t_bytes32,t_mapping(t_string_memory_ptr,t_string_storage)))": {
        "encoding": "mapping",
        "key": "t_uint64",
        "label": "mapping(uint64 => mapping(bytes32 => mapping(string => string)))",
        "numberOfBytes": "32",
        "value": "t_mapping(t_bytes32,t_mapping(t_string_memory_ptr,t_string_storage))"
      },
      "t_mapping(t_uint64,t_mapping(t_bytes32,t_mapping(t_uint256,t_bytes_storage)))": {
        "encoding": "mapping",
        "key": "t_uint64",
        "label": "mapping(uint64 => mapping(bytes32 => mapping(uint256 => bytes)))",
        "numberOfBytes": "32",
        "value": "t_mapping(t_bytes32,t_mapping(t_uint256,t_bytes_storage))"
      },
      "t_mapping(t_uint64,t_mapping(t_bytes32,t_string_storage))": {
        "encoding": "mapping",
        "key": "t_uint64",
        "label": "mapping(uint64 => mapping(bytes32 => string))",
        "numberOfBytes": "32",
        "value": "t_mapping(t_bytes32,t_string_storage)"
      },
      "t_mapping(t_uint64,t_mapping(t_bytes32,t_struct(PublicKey)18743_storage))": {
        "encoding": "mapping",
        "key": "t_uint64",
        "label": "mapping(uint64 => mapping(bytes32 => struct PubkeyResolver.PublicKey))",
        "numberOfBytes": "32",
        "value": "t_mapping(t_bytes32,t_struct(PublicKey)18743_storage)"
      },
      "t_string_memory_ptr": {
        "encoding": "bytes",
        "label": "string",
        "numberOfBytes": "32"
      },
      "t_string_storage": {
        "encoding": "bytes",
        "label": "string",
        "numberOfBytes": "32"
      },
      "t_struct(PublicKey)18743_storage": {
        "encoding": "inplace",
        "label": "struct PubkeyResolver.PublicKey",
        "members": [
          {
            "astId": 18740,
            "contract": "contracts/resolvers/PublicResolver.sol:PublicResolver",
            "label": "x",
            "offset": 0,
            "slot": "0",
            "type": "t_bytes32"
          },
          {
            "astId": 18742,
            "contract": "contracts/resolvers/PublicResolver.sol:PublicResolver",
            "label": "y",
            "offset": 0,
            "slot": "1",
            "type": "t_bytes32"
          }
        ],
        "numberOfBytes": "64"
      },
      "t_uint16": {
        "encoding": "inplace",
        "label": "uint16",
        "numberOfBytes": "2"
      },
      "t_uint256": {
        "encoding": "inplace",
        "label": "uint256",
        "numberOfBytes": "32"
      },
      "t_uint64": {
        "encoding": "inplace",
        "label": "uint64",
        "numberOfBytes": "8"
      }
    }
  }
}